:100000000C942A000C9447000C9447000C94470071
:100010000C9447000C9447000C9447000C94470044
:100020000C9447000C9447000C9447000C94470034
:100030000C9447000C9447000C9447000C94470024
:100040000C9447000C9447000C9447000C94470014
:100050000C94470011241FBECFE5D8E0DEBFCDBF12
:1000600010E0A0E6B0E0EAE6FCE002C005900D92E8
:10007000AE36B107D9F720E0AEE6B0E001C01D9280
:10008000A037B207E1F70E94D8050C9433060C9410
:100090000000CF93DF93EC01892B29F481E090E0FD
:1000A000DF91CF9108950E942B01892BB9F70E940F
:1000B000EA01009799F7C0936E00D0936F00F0CFDC
:1000C0000F931F93CF93DF9300D00F92CDB7DEB77E
:1000D00019821A821B8280916E0090916F00892B89
:1000E00059F401E010E0C8010F900F900F90DF91DC
:1000F000CF911F910F91089540E050E0BA01CE01D9
:1001000001960E94EE01892B61F7BE016D5F7F4F62
:1001100089819A810E9417028C01892B11F7E09145
:100120006E00F0916F008B81938161E070E0981711
:1001300028F094818917B8F660E070E080E090E0E4
:100140000E946501D0CF0F931F93CF93DF9300D010
:100150000F92CDB7DEB719821A821B8280916E0092
:1001600090916F00892B59F401E010E0C8010F90C5
:100170000F900F90DF91CF911F910F91089540E064
:1001800050E0BE016F5F7F4FCA010E94EE01892BD4
:1001900059F7BE016D5F7F4F89819A810E943402B9
:1001A0008C01892B09F7E0916E00F0916F008B8133
:1001B000958161E070E0891728F096819817B0F674
:1001C00060E070E081E090E00E946501CFCF0F9386
:1001D0001F93CF93DF9300D00F92CDB7DEB7198274
:1001E0001A821B8280916E0090916F00892B59F4C6
:1001F00001E010E0C8010F900F900F90DF91CF91B8
:100200001F910F910895AE014F5F5F4F60E070E066
:10021000CB010E94EE01892B59F7BE016D5F7F4F24
:1002200089819A810E9434028C01892B09F7E0911F
:100230006E00F0916F008B81978161E070E089170B
:1002400028F090859817B0F660E070E082E090E0CA
:100250000E946501CFCFCF93DF9341E060E081E062
:100260000E94BB02892B31F0C1E0D0E0CE01DF91CA
:10027000CF91089541E061E081E00E94BB02892BAB
:1002800099F741E062E081E00E94BB02892B61F7AF
:1002900041E063E081E00E94BB02EC01892B21F781
:1002A00040E060E081E00E94370340E061E081E0EF
:1002B0000E94370340E062E081E00E94370340E0A3
:1002C00063E081E00E943703D1CF9C010297A1F047
:1002D00060F491E0232B09F490E06230710548F45A
:1002E000462F692F81E00C94370393E023303105CA
:1002F000A1F381E090E0089592E0EFCFCF93DF93F8
:1003000000D000D000D0CDB7DEB769837A834B83AD
:100310005C832D833E83BC0180E090E00E946501F8
:10032000892B59F081E090E00F900F900F900F9083
:100330000F900F90DF91CF91089569817A8181E0CC
:1003400090E00E946501892B69F76B817C8182E0D6
:1003500090E00E946501892B29F76D817E8183E001
:1003600090E00E9465019C0181E0232BE1F680E092
:10037000DACF0F931F93CF93DF930F92CDB7DEB7F2
:100380008B011982672BE1F08230910509F1A8F405
:1003900061E0892B09F460E0AE014F5F5F4F81E0BF
:1003A0000E947803009761F421E04981413009F00F
:1003B00020E0F8012083118205C063E0039761F318
:1003C00081E090E00F90DF91CF911F910F91089500
:1003D00062E0E2CF66E081E00C9451020F931F933C
:1003E000CF93DF938B01EA01009739F481E090E02D
:1003F000DF91CF911F910F910895672BB9F320974B
:10040000A9F3BC0180E00E949F02892B79F7B80113
:1004100081E00E949F02892B49F7BE0182E00E9481
:100420009F029C0181E0232B11F780E0E0CFCF9366
:10043000DF93EB012097A9F09C01A2E3B0E00E94BA
:10044000EE0561507E4F8F4F9F4F2FEF33E040E01E
:1004500050E00E941106288380E090E0DF91CF9168
:10046000089581E090E0FACFCF93DF93EB012097DE
:10047000A9F09C01A4E6B0E00E94EE0561507E4F19
:100480008F4F9F4F2FEF33E040E050E00E94110666
:10049000288380E090E0DF91CF91089581E090E0A3
:1004A000FACF8430F0F46830E0F43E983F9880FD55
:1004B0003E9A869509F03F9A3D98389839983A982F
:1004C0003B983C9830983198329860FD309A61FDA5
:1004D000319A6695669509F0329A379A80E090E0F5
:1004E000089581E090E00895379880E090E00895C5
:1004F000883088F4389839983A983B983C9880FD31
:10050000389A81FD399A8695869509F03A9A369AF5
:1005100080E090E0089581E090E008958827369982
:1005200083950895009741F024B145B1FC012083E3
:10053000418380E090E0089581E090E00895CF93BA
:10054000DF9300D0CDB7DEB769837A830E9478024B
:10055000009761F40E948E028130E1F389819A81D3
:100560000F900F90DF91CF910C9492020F900F900B
:10057000DF91CF910895843008F076C0683008F09C
:1005800073C0413040F521E001C0220F6A95EAF7BF
:100590002095823091F08330B9F0813039F08AB300
:1005A00082238ABB8BB382238BBB26C087B3822373
:1005B00087BB88B3822388BB1FC084B3822384BBDC
:1005C00085B3822385BB18C081B3822381BB82B3EC
:1005D000822382BB11C0F9F421E030E0A90101C0FF
:1005E000440F6A95EAF7823071F0833081F08130F0
:1005F00031F08AB3842B8ABB80E090E0089587B302
:10060000842B87BBF9CF84B3842B84BBF5CF81B314
:10061000842B81BBF1CF423039F521E030E0A901D4
:1006200001C0440F6A95EAF7942F9095823081F0CB
:100630008330A1F0813031F08AB389238ABB8BB338
:10064000842BB2CF87B3892387BB88B3842BB3CFE6
:1006500084B3892384BB85B3842BB4CF81B389232E
:1006600081BB82B3842BB5CF81E090E008958430C4
:10067000E0F56830D0F54130F9F421E030E0A9012F
:1006800001C0440F6A95EAF7823071F0833081F03F
:10069000813031F08BB3842B8BBB80E090E00895E8
:1006A00088B3842B88BBF9CF85B3842B85BBF5CF6A
:1006B00082B3842B82BBF1CFC0F421E001C0220FB2
:1006C0006A95EAF72095823051F0833059F08130F5
:1006D00019F08BB38223E0CF88B38223E3CF85B3B5
:1006E0008223E4CF82B38223E5CF81E090E00895B6
:1006F000FA018430E0F46830D0F43097C1F08230F1
:1007000091F0833091F0813061F089B390E002C0C4
:10071000959587956A95E2F78170808380E090E0F7
:10072000089586B3F3CF83B3F1CF80B3EFCF81E0E9
:1007300090E00895843008F56830F8F421E030E066
:10074000A90101C0440F6A95EAF7823071F0833045
:1007500081F0813031F08BB384278BBB80E090E057
:10076000089588B3842788BBF9CF85B3842785BBD8
:10077000F5CF82B3842782BBF1CF81E090E008956A
:10078000843080F4823051F0833051F0813021F098
:100790006ABB80E090E0089567BBFBCF64BBF9CFF4
:1007A00061BBF7CF81E090E00895843080F482301F
:1007B00051F0833051F0813021F06BBB80E090E04C
:1007C000089568BBFBCF65BBF9CF62BBF7CF81E073
:1007D00090E00895FB01843098F4309789F08230DE
:1007E00059F0833059F0813029F089B3808380E05B
:1007F00090E0089586B3FACF83B3F8CF80B3F6CFF5
:1008000081E090E008958FB780688FBF80E090E02E
:1008100008958FB78F778FBF80E090E00895813083
:1008200079F08230C1F0811122C0643000F585B7C3
:100830008C7F85BF85B7862B85BF80E090E00895CB
:100840006430A8F485B7837F85BF85B7660F660FD0
:10085000682B65BFF2CF8EEF860F823040F484B7ED
:10086000623019F48F7B84BFE8CF8064FCCF81E0D5
:1008700090E00895813051F0823059F081110CC020
:100880008AB780648ABF80E090E008958AB7806864
:10089000F9CF8AB78062F6CF81E090E00895813089
:1008A00069F0823089F0811115C08AB780648ABFEF
:1008B0008BB780648BBF80E090E008958AB7806832
:1008C0008ABF8BB78068F6CF8AB780628ABF8BB742
:1008D0008062F0CF81E090E00895813051F0823065
:1008E00059F081110CC08BB78F7B8BBF80E090E0FB
:1008F00008958BB78F77F9CF8BB78F7DF6CF81E0D7
:1009000090E008958430B0F493B7977B93BF823022
:1009100059F0833061F0813019F080E090E0089563
:1009200083B7806483BFF9CF83B78860FBCF83B779
:100930008864F8CF81E090E00895883048F493B758
:10094000987F93BF93B7982B93BF80E090E0089572
:1009500081E090E0089583B7887F83BF80E090E0D6
:1009600008958CBF80E090E00895843058F493B7E8
:100970009F7C93BF93B78295807F892B83BF80E054
:1009800090E0089581E090E00895813038F049F4D6
:1009900089B7816089BF80E090E0089589B78E7F34
:1009A000F9CF81E090E00895813038F049F489B7BB
:1009B000826089BF80E090E0089589B78D7FF9CF8C
:1009C00081E090E00895811531F09CEF980F92300E
:1009D00010F08E30D9F49FB59C7F9FBD9EB5977E59
:1009E0009EBD853049F060F4811519F08EB58860A0
:1009F0008EBD80E090E008958FB581608FBDF6CF09
:100A00008FB582608FBD8EB58861F2CF81E090E0B6
:100A10000895883048F49EB5987F9EBD9EB5982B6A
:100A20009EBD80E090E0089581E090E008958EB54D
:100A3000887F8EBD80E090E008959BBD8ABD80E0F8
:100A400090E0089597BD86BD80E090E008958536DA
:100A5000C0F495B5977895BD95B5986695BD2FEF7F
:100A6000829FC001112464E670E00E94FD0563BD11
:100A700085B5887F85BD85B5866085BD80E090E0C1
:100A8000089581E090E008950097C9F125B5277891
:100A900025BD25B5286625BD2FE723BD25B5287FB3
:100AA00025BD88392AE3920730F085B5816085BD80
:100AB00080E090E00895803D27E0920718F085B52A
:100AC0008260F5CF8C3B22E0920718F085B58360F9
:100AD000EECF8E3521E0920718F085B58460E7CF20
:100AE0008A3A910518F085B58560E1CF8634910585
:100AF00018F085B58660DBCF85B58760D8CF81E0FB
:100B000090E0089585B5887F85BD85B58F7C85BDCE
:100B100080E090E00895009770406040D1F09B0124
:100B2000AC0184E0220F331F441F551F8A95D1F773
:100B300060E072E18AE790E00E94110621503109DD
:100B400030BD29B986E880BD88E18AB980E090E0AF
:100B5000089581E090E008955D9BFECF8CB980E020
:100B600090E00895009741F05F9BFECF2CB1FC010F
:100B7000208380E090E0089581E090E008950F9355
:100B80001F93CF938C01C0E0892B31F481E090E07A
:100B90000BC00E94AC05CF5FF801EC0FF11D808106
:100BA0008111F7CF80E090E0CF911F910F910895D0
:100BB000CDB7DEB72D970FB6F894DEBF0FBECDBF11
:100BC0008DE0E0E6F0E0DE01119601900D928A954D
:100BD000E1F7CE0101960E944900FFCFA29FB0012C
:100BE000B39FC001A39F700D811D1124911DB29F61
:100BF000700D811D1124911D0895AA1BBB1B51E18D
:100C000007C0AA1FBB1FA617B70710F0A61BB70B7C
:100C1000881F991F5A95A9F780959095BC01CD0121
:100C20000895A1E21A2EAA1BBB1BFD010DC0AA1F2D
:100C3000BB1FEE1FFF1FA217B307E407F50720F045
:100C4000A21BB30BE40BF50B661F771F881F991FC0
:100C50001A9469F760957095809590959B01AC0109
:0A0C6000BD01CF010895F894FFCF05
:0E0C6A00C3A5012320283C19282D0F000000EF
:00000001FF
