:100000000C942A000C9432110C945B110C94841102
:100010000C9447000C9447000C9447000C94470044
:100020000C9447000C9447000C94AD110C944700BD
:100030000C9447000C947E130C94A2130C9447006C
:100040000C9447000C9447000C9447000C94470014
:100050000C94470011241FBECFE5D8E0DEBFCDBF12
:1000600012E0A0E6B0E0E8EDF9E202C005900D92E2
:10007000AE35B107D9F724E0AEE5B2E001C01D927C
:10008000AD34B207E1F70E94C4130C94EA140C9447
:1000900000000C940D010C94DC08CF93DF9300D08A
:1000A0000F92CDB7DEB7CE0103960E94CB0DCE01E5
:1000B00002960E94D70DCE0101960E94E30D0E9488
:1000C000890C60E080E00E949D0C8AE690E00E942E
:1000D000A80C8B8190E00E94B80C8DE690E00E9405
:1000E000A80C8A8190E00E94B80C82E790E00E9400
:1000F000A80C60E081E00E949D0C84E790E00E94E3
:10010000A80C898190E00E94B80C87E790E00E94DB
:10011000A80C0E948B07019751F48CE790E00E9495
:10012000A80C0F900F900F90DF91CF9108950E942F
:100130008B07029719F481E890E0F1CF0E948B07BA
:10014000039719F488E890E0EACF8EE890E0E7CFD3
:100150000C94B0060C9408050C94250E0C946E0BB0
:10016000CF93DF9300D000D0CDB7DEB7843650F107
:1001700064E60E943414805D8983892F91E021E038
:10018000290FFE013196E90FF11D6AE00E94341437
:10019000805D8083892FFE013196E20FF11D805D25
:1001A00080832F5FFE013196E20FF11D1082CE0198
:1001B00001960E94A6120F900F900F900F90DF9162
:1001C000CF91089520E08A3030F390E0D8CF85E9D0
:1001D00090E00C94A612CF93DF9300D0CDB7DEB79A
:1001E00089839A838AE990E00E94A61289819A8184
:1001F0000E94A61287E990E00F900F90DF91CF91B7
:100200000C94A612809396029093970210927C020F
:1002100010927B0280E090E00895CF92DF92EF92FF
:10022000FF920F931F93CF93DF93CDB7DEB72E9737
:100230000FB6F894DEBF0FBECDBF0E942213892BEC
:10024000C1F4CE010E960E9447138C0181E090E02C
:100250000115110581F48E8590917B028D3019F086
:100260008A3009F0AFC29115A9F010927B0210926A
:100270007C0280E090E02E960FB6F894DEBF0FBEB1
:10028000CDBFDF91CF911F910F91FF90EF90DF9045
:10029000CF90089590917C02911559F3E92FF0E0E9
:1002A000BF0163587D4FFB0110822DE732E0D90179
:1002B0008D914FE9480F4A3108F48052AD01415009
:1002C0005109FA0180838A2F821B891788F3FB0169
:1002D00010826FE970E08DE792E00E947B14892B19
:1002E00029F484EA90E00E94A612C1CF62E371E093
:1002F0008DE792E00E947B14892B51F40E941C0828
:10030000892B09F4B4CF89E391E00E94EB00AFCFD1
:100310006EE371E08DE792E00E947B14892B09F077
:1003200064C08091960290919702892B19F483E41E
:1003300091E0EBCF87E491E00E94A612E091960253
:10034000F091970283810E94B0008CE491E00E94BA
:10035000A612E0919602F091970284810E94B0006B
:100360008CE491E00E94A612E0919602F09197022F
:1003700085810E94B0008CE491E00E94A612E09179
:100380009602F091970286810E94B0008CE491E081
:100390000E94A612E0919602F091970287810E9436
:1003A000B0008CE491E00E94A612E0919602F091D8
:1003B000970280850E94B0008CE491E00E94A61212
:1003C000E0919602F091970281850E94B0008CE442
:1003D00091E00E94A612E0919602F0919702828528
:1003E0000E94B00087E990E07ECF6EE471E08DE777
:1003F00092E00E947B14892BD1F064E571E08DE7D7
:1004000092E00E947B14892BF9F06AE571E08DE798
:1004100092E00E947B14892B09F5CE0101960E947F
:10042000E30D892B09F023CF8DE691E009C0CE01C1
:1004300001960E94CB0D892B09F019CF81E691E03E
:100440000E94A6128981CCCFCE0101960E94D70DC1
:10045000892B09F00CCF87E691E0F2CF44E050E021
:1004600064E771E08DE792E00E948414892B09F023
:10047000DCC08091960290919702892B09F457CFA6
:1004800066EB71E081E892E00E9476146C0166EB05
:1004900071E080E090E00E9476147C01C114D104E8
:1004A00009F445CF892B09F442CF66EB71E080E077
:1004B00090E00E947614892B09F039CFF7019081E2
:1004C0004E2F8F2F31969032D1F3E42FF82F5AE030
:1004D000E52EF12C208120532A3008F45FC09E2F96
:1004E00081918032E9F3491709F421CF81111FCF9F
:1004F000E0919602F09197022DE0CE010196DC0189
:1005000001900D922A95E1F77C01111158C169E71C
:1005100071E0C6010E947B14892B09F055C00C8341
:100520009C8186EF890F893208F07CC08D818333EE
:1005300008F078C08E5F981708F474C09E818BEF26
:10054000890F8B3508F06EC08F812BEF280F2B356C
:1005500008F068C0981708F065C09885953608F0CF
:1005600061C08985853608F05DC0981708F05AC0CB
:10057000C7010E949F07892B09F0D9CE0E949907D5
:10058000892B09F0D4CEA0919602B09197028DE00C
:10059000F70101900D928A95E1F7F4C030E0822FC7
:1005A00080959FEFB7010E9440146017710708F40F
:1005B000BECE31965AE0509FC001519F900D11243C
:1005C0008901080F191F86CF60E871E0C6010E94FB
:1005D0007B14892B11F40D83A3CF68E871E0C60169
:1005E0000E947B14892B11F40E839ACF6FE871E07F
:1005F000C6010E947B14892B11F40F8391CF67E908
:1006000071E0C6010E947B14892B11F4088788CF02
:100610006FE971E0C6010E947B14892B09F0CFC0FD
:1006200009877ECF8CEA91E070CE45E050E062EB26
:1006300071E08DE792E00E948414892BF1F46CE75D
:1006400070E082E892E00E947B14892B51F481E0F3
:1006500090E00E94BA07892B09F494C088EB91E0DE
:1006600054CE61E870E082E892E00E947B14892B0E
:1006700009F05DCE82E090E0ECCF44E050E06DEB1D
:1006800071E08DE792E00E948414892B09F459C02F
:1006900045E050E062EC71E08DE792E00E94841446
:1006A000892B09F472C045E050E068EC71E08DE7F9
:1006B00092E00E94841432E0C32ED12C892B09F4DD
:1006C00067C06EEC71E08DE792E00E947B14892B8D
:1006D00009F066C0E0919602F0919702309709F414
:1006E00026CE8DE0DE01119601900D928A95E1F7FC
:1006F00083EC95EA89839A8381E08B8383E28C8300
:1007000080E28D8388E28E839CE39F8399E19887C2
:1007100089878DE28A878FE08B87CE0101960E94C0
:100720009F07892B09F003CE0E949907892B09F0B6
:10073000FECDA0919602B09197028DE0FE01319618
:1007400028CFC12CD12C21E8E22E22E0F22E6CE839
:1007500071E0C7010E947B14892BF9F063E971E015
:10076000C7010E947B14892B09F0E1CD0E948B0701
:10077000029709F073CFB801C6010E94780A892B4D
:1007800009F0D5CD0E94E70072CD91E0C92ED12CA1
:1007900082E8E82E82E0F82EDACF01E010E0E6CF22
:1007A00067ED71E08DE792E00E947B14892B39F4AC
:1007B0000E949307892B31F38DED91E0A6CD88EA55
:1007C00091E0A3CD911155CDE0917C02E83140F04C
:1007D00081E080937B0284EE91E00E94EB0049CDA2
:1007E00091E09E0F90937C02F0E0E358FD4F8083F0
:1007F00040CDCF93DF93EC01892B29F481E090E089
:10080000DF91CF9108950E94590A892BB9F70E9470
:10081000840D009799F7C0939B02D0939C0210928D
:10082000990210929A0210929802EACFCF93DF9326
:100830000F92CDB7DEB780919B0290919C02892BDD
:1008400031F481E090E00F90DF91CF910895CE01D7
:1008500001960E94CB0D0097A1F7E0919B02F091C9
:100860009C022981338161E070E0321730F03481DD
:10087000231748F760E070E0CB010E94780A21E07E
:10088000892B09F420E0822F90E0DDCFFF920F93B7
:100890001F93CF93DF9300D00F92CDB7DEB71B82AB
:1008A00019821A8280919B0290919C02892B61F49B
:1008B00001E010E0C8010F900F900F90DF91CF91F1
:1008C0001F910F91FF900895CE0103960E94D70DBE
:1008D0008C01892B69F7809198028115B1F0FB801A
:1008E00060E070E081E090E00E94780A892B01F7D7
:1008F000E0919B02F0919C0286818F15F0F5109299
:1009000098021092990210929A02E0919B02F09143
:100910009C028B8195818917A8F561E070E081E0E8
:1009200090E00E94780A892B19F6BE016F5F7F4F15
:1009300081E090E00E94D40A892B09F0B9CF898127
:100940009A81019779F58091990290919A02803766
:1009500027E19207E8F060E070E081E090E00E941B
:10096000780A1092990210929A0281E0809398027C
:1009700089EE91E00E9471099DCF809198028111CA
:1009800099CFC3CF9681981780F660E070E0C7CF0B
:1009900001968093990290939A028037974109F0CB
:1009A00089CFD9CF1092990210929A0283CFCF9318
:1009B000DF930F92CDB7DEB780919B0290919C029E
:1009C000892B31F481E090E00F90DF91CF91089571
:1009D000CE0101960E94E30D0097A1F7E0919B02E2
:1009E000F0919C022981378161E070E0231728F0A3
:1009F0003085321748F760E070E082E090E00E94B6
:100A0000780A21E0892B09F420E0822F90E0DCCFE6
:100A10000E941604892B31F40E944604892B11F49C
:100A20000C94D70481E090E00895E091B302F09136
:100A3000B40283EC95EA8083918381E0828383E230
:100A4000838380E2848388E285839CE3968399E1B3
:100A5000978380878DE281878FE082871386089550
:100A600060E070E0CB010E94780A60E070E081E015
:100A700090E00E94780A60E070E082E090E00E94DE
:100A8000780A60E070E083E090E00E94780A60E01D
:100A900070E084E090E00C94780A1F93CF93DF938A
:100AA00000D00F92CDB7DEB78B830E94810D8111EC
:100AB0006CC010E08091B002811509F45FC061E064
:100AC00070E083E090E00E94780ACE0102960E94D6
:100AD000CB0D892B81F4E091B302F091B4028A81AD
:100AE000918561E070E0981710F060E070E080E0C0
:100AF00090E00E94780ACE0101960E94D70D892BC2
:100B000081F4E091B302F091B4029981828561E0B1
:100B100070E0981710F060E070E081E090E00E94D3
:100B2000780A80919D0261E070E08A3010F060E008
:100B300070E084E090E00E94780A90919D029F5FAF
:100B4000943608F090E090939D028091AF029B81D3
:100B5000892BA1F0111112C01092B0021092AF02B5
:100B600060E070E083E090E00E94780A60E070E06E
:100B700084E090E00E94780A10929D020F900F90FE
:100B80000F90DF91CF911F9108958091B3029091C2
:100B9000B402892B09F48DCFCE0102960E94CB0DB1
:100BA000892B09F086CFCE0101960E94D70D892BA3
:100BB00009F07FCFE091B302F091B40291858A8170
:100BC000981728F082859981981708F072CF809144
:100BD000B002811105C081E08093B00210929D02A5
:100BE00011E068CFCF93DF93CDB7DEB72F970FB665
:100BF000F894DEBF0FBECDBFE091B302F091B40216
:100C000081E090E0309789F18DE0DE01119601904E
:100C10000D928A95E1F783EC95EA89839A8381E0C6
:100C20008B83FE0131969E01235F3F4F80E0EE876C
:100C3000FF879191890FE217F307D9F781958D8787
:100C40004DE050E060E070E08E859F850E94C91401
:100C5000A091B302B091B4028DE0EE85FF850190C2
:100C60000D928A95E1F780E090E02F960FB6F89408
:100C7000DEBF0FBECDBFDF91CF9108950F931F93BD
:100C8000CF93DF93CDB7DEB72D970FB6F894DEBFC5
:100C90000FBECDBF009709F460C08093B30290935C
:100CA000B4021092B1021092B2021092B0021092ED
:100CB000AF021092AE021092AD0281E0809360000C
:100CC0001092610010929E0210929F0210929D025B
:100CD0004DE050E060E070E08E010F5F1F4FC801F3
:100CE0000E94B91489819A81F801833C954A91F553
:100CF0008B81813079F59D85D8019E01235F3F4F1F
:100D000080E04D91840FA217B307D9F7819598130E
:100D100021C0A091B302B091B4028DE001900D9278
:100D20008A95E1F7E091B302F091B4028DE0A0EA78
:100D3000B2E001900D928A95E1F780E090E02D9667
:100D40000FB6F894DEBF0FBECDBFDF91CF911F91DC
:100D50000F9108950E941505E5CF81E090E0EFCF57
:100D6000FF920F931F93CF93DF9300D000D0CDB7A6
:100D7000DEB78091B3029091B402892B69F401E04F
:100D800010E0C8010F900F900F900F90DF91CF915E
:100D90001F910F91FF9008951B821C8219821A8265
:100DA0008E010D5F1F4FB80182E090E00E94C10BE1
:100DB000009729F010929E0210929F0237C0BE0148
:100DC0006F5F7F4F0E94C10B892BA1F78B819C81A4
:100DD000019781F789819A81019761F780919E023D
:100DE00090919F028C3221E0920708F449C0109242
:100DF0009E0210929F020E941505E091B302F091AD
:100E0000B4028DE0A0EAB2E001900D928A95E1F77C
:100E10001092B0021092AF021092AE021092AD0288
:100E20000E9430051092B1021092B202B80181E026
:100E300090E00E94DB0B009709F0A1CFBE016F5F2D
:100E40007F4F0E94DB0B8C01892B09F098CF80919A
:100E5000AD02811581F11092AD02809160009091F8
:100E6000610082309105A9F48093B1029093B2029F
:100E7000FB8089810E944D05F11409F482CF32C0B4
:100E8000019680939E0290939F028C32914071F65E
:100E9000AECF81E08093B1021092B202FB808981D3
:100EA0000E944D05F11409F46CCF82E08093B102E9
:100EB0001092B20266CF8091B1029091B20283305B
:100EC000910591F020F4019748F091F6E7CF04974F
:100ED00079F01092B1021092B20253CF0E94300505
:100EE0001092B00281E0E2CF89810E944D0549CF86
:100EF0008091AE02811509F444CFA091B302B09164
:100F0000B4028DE0E0EAF2E001900D928A95E1F7FB
:100F10001092AE02E7CF8091B1029091B202089593
:100F20008091B002089581E08093AF0280E090E06C
:100F3000089581E08093AE0280E090E00895FC0186
:100F40008091B3029091B402892B89F0309779F0A7
:100F50009DE0A0EAB2E001900D929A95E1F784E05D
:100F600090E08093B1021092B20280E0089581E097
:100F700090E008959C01215031092230310550F450
:100F8000809360009093610081E08093AD0280E0E7
:100F900090E0089581E090E008950F931F93CF9320
:100FA000DF9300D000D00F92CDB7DEB7482F392F96
:100FB000FB018E010F5F1F4F20E0CF016AE070E060
:100FC0000E944014D8018C93822F2F5F3A9730F003
:100FD0000F5F1F4FFB01253081F784E0FE01319642
:100FE000E80FF11D842F932F21508F34910538F491
:100FF000DC01A952BD4F3081305D3C9301963197A1
:101000002111F2CF0F900F900F900F900F90DF9162
:10101000CF911F910F910895FB012081211519F0A7
:101020008F34910508F008956F5F7F4FFC01E952FE
:10103000FD4F20830196F0CFCF93DF93C09127031C
:10104000D0912803209709F497C06BEF71E080E0FE
:1010500090E00E940C086E8170E00E94CD0762E073
:1010600072E00E940C086091B5027091B6020E9475
:10107000CD076CE072E00E940C086F8170E00E9466
:10108000CD0760E172E00E940C08688570E00E9464
:10109000CD0764E172E00E940C08698570E00E944F
:1010A000CD0768E172E00E940C086A8570E00E943A
:1010B000CD076CE172E00E940C086B8570E00E9425
:1010C000CD0760E272E00E940C086C8570E00E941F
:1010D000CD0764E272E00E940C08ED85E15066EFF6
:1010E00071E0E43038F4F0E0EE0FFF1FEE59FF4FEF
:1010F000608171810E940C086BE272E00E940C0812
:101100006E857F850E94CD079C01FC01E952FD4F51
:101110001082A8EDB2E090E08C91811122C08AE2A9
:101120008083892F82958F70903A10F5805DD90168
:10113000A852BD4F8C939F709A30E0F4905DD90116
:10114000A752BD4F9C9326523D4F8DE0D9018C9301
:101150008AE08483158287ED92E0DF91CF910C9431
:10116000D012119643E0A832B407C9F29827D4CF21
:10117000895CDDCF995CE3CF81E090E0DF91CF9196
:101180000895FC010097A9F080932703F0932803AA
:101190001092B5021092B60216821782108611863E
:1011A00012861386148615861686178680E090E0D0
:1011B000089581E090E00895CF93DF9300D0CDB7FC
:1011C000DEB78091270390912803009709F482C02D
:1011D00006960E94CB0D892B09F07CC080912703D5
:1011E0009091280307960E94D70D892B09F072C0B1
:1011F000809127039091280308960E94E30D0097A1
:1012000009F068C0BE016F5F7F4F0E94D40A892B2E
:1012100009F060C0E0912703F0912803898181875C
:10122000BE016F5F7F4F81E090E00E94D40A892B5E
:1012300009F050C0E0912703F0912803898182874B
:10124000BE016F5F7F4F82E090E00E94D40A892B3D
:1012500009F040C0E0912703F0912803898183873A
:10126000BE016F5F7F4F83E090E00E94D40A892B1C
:1012700089F5E0912703F0912803898184870E94F2
:101280008B07E0912703F0912803858782858130C1
:1012900069F48091B5029091B6028B3F2FEF9207CF
:1012A000B0F405968093B5029093B6028685978533
:1012B0008B3F2FEF920710F08AEF9FEF05968687FE
:1012C00097870F900F90DF91CF910C941C088FEFB0
:1012D0009FEFE8CF81E090E00F900F90DF91CF91EA
:1012E0000895009759F121E22093B70225E4209355
:1012F000B80226E52093B90224E52093BA022CE235
:101300002093BB02FC01ACEBB2E020E030E0808136
:10131000811519F02831310561F4F901E954FD4FC7
:101320008DE085838AE08683178287EB92E00C94B8
:10133000D01231968D932F5F3F4FE9CF81E090E03F
:1013400008958091B5029091B6020895ECE2F3E021
:1013500010821182128213821482158216823796AD
:1013600083E0ED35F807A1F710922B0310922903C3
:1013700010922A0380E090E00895E82F9B01CA01B3
:10138000E730D0F4672BC1F04A305105A8F06AE08D
:1013900070E00E944014009779F447E0E49FF00168
:1013A0001124E45DFC4F20833183628373831482B4
:1013B000158221E02683089581E090E0089587302A
:1013C00058F497E0899FF0011124E45DFC4F81E01F
:1013D000868380E090E0089581E090E00895873072
:1013E00050F497E0899FF0011124E45DFC4F1682D0
:1013F00080E090E0089581E090E0089580912B03D3
:10140000811561F08091290390912A038F3F9807FD
:1014100029F001968093290390932A0381E0809319
:101420002B030895CF93DF9380912B038115E9F06F
:1014300010922B03CCE2D3E08E81811589F08C8150
:101440009D8101968C839D832A813B81821793071E
:1014500038F01C821D82E881F981309709F00995E6
:10146000279683E0CD35D80739F7DF91CF910895DE
:101470008091290390912A030895CF93DF9300D0A0
:10148000CDB7DEB789836A8341E00E94100F892BB4
:1014900049F440E06A8189810F900F90DF91CF91EC
:1014A0000C944F0F81E090E00F900F90DF91CF915F
:1014B000089560E081E00E943D0A892BB1F461E06B
:1014C00081E00E943D0A892B81F462E081E00E9464
:1014D0003D0A892B51F463E081E00E943D0A892B8B
:1014E00021F467E083E00C943D0A81E090E00895E8
:1014F0009C0162307105A0F482309105A1F048F49E
:1015000091E0232B09F490E081E0462F692F0C94A1
:101510004F0F039751F083E097E024303105A9F392
:1015200081E090E0089592E0EFCF93E0EDCFCF938C
:10153000DF9300D000D000D0CDB7DEB769837A83C7
:101540004B835C832D833E83BC0180E090E00E944E
:10155000780A892BF1F469817A8181E090E00E9418
:10156000780A892BB1F46B817C8182E090E00E9443
:10157000780A892B71F46D817E8183E090E00F9071
:101580000F900F900F900F900F90DF91CF910C94D0
:10159000780A81E090E00F900F900F900F900F90DD
:1015A0000F90DF91CF9108950F931F93CF93DF9307
:1015B0000F92CDB7DEB78B011982672BF1F0823025
:1015C000910519F1A8F461E0892B09F460E081E04C
:1015D000AE014F5F5F4F0E94770F009771F421E0DB
:1015E0004981413009F020E0F8012083118207C0D1
:1015F0008330910561F0049761F081E090E00F90F5
:10160000DF91CF911F910F91089562E0E0CF63E0E9
:10161000DECF67E083E0DCCF41E067E083E00C945D
:101620004F0F40E067E083E00C944F0FCF93DF93C0
:101630000F92CDB7DEB71982AE014F5F5F4F67E003
:1016400083E00E94770F892B61F48981811106C0A4
:101650000E940C0B0F90DF91CF9108950E94110B07
:10166000F9CF81E090E0F6CF10925D0310925E0317
:1016700010925F0310926003109261031092620354
:101680001092630310926403109265031092660334
:1016900010926703109268031092690310926A0314
:1016A00010926B0310926C0310926D0310926E03F4
:1016B00042E062E083E00E94100F892B61F442E077
:1016C00063E083E00E94100F892B29F442E064E07C
:1016D00083E00C94100F81E090E00895FF920F9347
:1016E0001F93CF93DF930F92CDB7DEB70DE513E0D5
:1016F000F12C81E0898363E0F81629F0E2E062E0F2
:10170000FE1201C064E0AE014F5F5F4F83E00E94B4
:10171000770F892BE9F421E08981811120E0822F64
:1017200090E0F8012281338128173907A1F08283E4
:1017300013821482F3940A5F1F4FF3E0FF12D9CF94
:1017400080E00F90DF91CF911F910F91FF9008954E
:1017500080E090E0E6CF2481223070F0F801208113
:1017600031812817390731F3808311828130910547
:1017700009F781E08583DECF2F5F24832230D1F605
:10178000EDCF83309105A0F46115710589F046E035
:10179000489F9001499F300D1124235A3C4FF90175
:1017A00080819181FB018083918380E090E00895A6
:1017B00081E090E008958330910590F46115710502
:1017C00079F026E0289FF001299FF00D1124E35ABB
:1017D000FC4F8581DB018C93158280E090E00895B9
:1017E00081E090E008958330910568F446E0489FD9
:1017F0009001499F300D1124235A3C4FF901158265
:1018000080E090E0089581E090E00895CF93DF9329
:1018100000D0CDB7DEB789836A830E941E10892B62
:10182000A1F48EE30E944010892B31F00F900F90AD
:10183000DF91CF910C94181089810E946B10892B35
:10184000A9F78A810E946B10F1CF0F900F90DF9162
:10185000CF910895682F80E00C94060C60EA76E83A
:1018600081E090E00E94EE0F2FE788E391E02150A5
:1018700080409040E1F700C0000088E30E942A0CFD
:101880008FE097E20197F1F700C0000089E30E9422
:101890002A0C8FEC97E00197F1F700C0000084E17B
:1018A0000E942A0C88E70E942A0C8EE50E942A0CCE
:1018B0008AE60E942A0C9FEF21EE84E0915020409E
:1018C0008040E1F700C0000088E30E942A0C8FEC02
:1018D00097E00197F1F700C000008CE00E942A0C0D
:1018E0008FEC97E00197F1F700C0000081E00E94C3
:1018F0002A0C8FE99FE00197F1F700C0000086E015
:101900000E942A0C8FEC97E00197F1F700C00000CD
:10191000089581E00E942A0C8FE99FE00197F1F77A
:1019200000C00000089582E00E942A0C8FE99FE029
:101930000197F1F700C000000895603108F06FE0F2
:10194000811104C080E8860F0C942A0C80ECFBCF38
:10195000CF93DF93EC01892B39F4DF91CF91089578
:10196000219680E40E94060C68816111F9CFF5CFC1
:101970001F93CF93DF9300D000D00F92CDB7DEB787
:101980009C0110E0892B61F460E380E40F900F90DC
:101990000F900F900F90DF91CF911F910C94060C38
:1019A000C9016AE070E00E944014FE013196E10F27
:1019B000F11D805D8083C9019B011F5F0A9780F73D
:1019C000111109C00F900F900F900F900F90DF91A1
:1019D000CF911F9108951150FE013196E10FF11D35
:1019E000608180E40E94060CEBCF8CE00C942A0C02
:1019F00088E00C942A0CCF93DF93CDB7DEB72997FC
:101A00000FB6F894DEBF0FBECDBF8F83688779878E
:101A1000BE016B5F7F4F0E94E30E892B59F081E07E
:101A200090E029960FB6F894DEBF0FBECDBFDF91D0
:101A3000CF910895BE016D5F7F4F8F810E94E30EAD
:101A4000892B69F7BE016F5F7F4F8F810E94E30E84
:101A5000009729F769817A812B813C814D815E81D4
:101A60002417350748F46217730768F09B01421783
:101A7000530748F49A0107C064177507D8F3621733
:101A8000730708F49B01E885F98520833183C9CF6A
:101A900061507109FC01ED58FC4F6E3F7340F0F04E
:101AA0002081223338F0FC01E059FC4F20812115C0
:101AB00031F008952F5F20832233A9F3089521E0A8
:101AC0002083019720F480E392E00C94710919F4CB
:101AD0008FE392E0FACF8EE492E0F7CF1082805944
:101AE0009C4FFC01108208959091700380917103C6
:101AF000982B80917203982B81E0911101C080E0B6
:101B0000089580916F03089510927D0310927E03D3
:101B100010927B0310927C031092790310927A0347
:101B20001092780310927703109276031092730349
:101B30001092740310927503109270031092710347
:101B40001092720310926F0366E081E00C94950E80
:101B50000097F1F061157105D9F041155105C1F0FB
:101B600020917D0330917E03FC012083318380919D
:101B70007B0390917C03FB018083918380917903A7
:101B800090917A03FA018083918380E090E0089538
:101B900081E090E00895009739F020917803FC01EE
:101BA000208380E090E0089581E090E00895009720
:101BB00039F020917703FC01208380E090E00895C4
:101BC00081E090E00895009739F020917603FC01C0
:101BD000208380E090E0089581E090E00895CF9325
:101BE000DF93EB01209799F0943088F49C01A2E3F5
:101BF000B0E00E9425142FEF33E040E050E00E9457
:101C00005414288380E090E0DF91CF91089581E023
:101C100090E0FACFCF93DF93EB01209799F09430C7
:101C200088F49C01A4E6B0E00E9425142FEF33E075
:101C300040E050E00E945414288380E090E0DF915F
:101C4000CF91089581E090E0FACFCF92DF92EF92AA
:101C5000FF920F931F93CF93DF9300D000D000D05B
:101C6000CDB7DEB7BE016B5F7F4F80E00E94FB0CFB
:101C7000892B89F081E090E00F900F900F900F90EA
:101C80000F900F90DF91CF911F910F91FF90EF90E8
:101C9000DF90CF900895BE016D5F7F4F81E00E947D
:101CA000FB0C892B39F7BE016F5F7F4F82E00E94EA
:101CB000FB0C0097F9F609811A81EB80FC80CD803E
:101CC000DE80B6010E94480DB70181E090E00E94DD
:101CD000480DB80182E090E00E94480D68E773E08B
:101CE000C6010E94EF0D892B29F667E773E0C70153
:101CF0000E940A0E892B09F0BDCF66E773E0C80188
:101D00000E940A0E009709F0B5CFC0927D03D092D1
:101D10007E03E0927B03F0927C030093790310939F
:101D20007A0321E020936F03A7CF823011F19FEF58
:101D3000960F9730F0F4379897B19F7397B997B192
:101D40008295880F880F807C892B87B93D9887B151
:101D5000807E87B987B187B986B1887F86B986B119
:101D6000682B66B935983398349A379A80E090E0BA
:101D7000089581E090E00895883068F436990BC0AA
:101D800097B1907E97B997B1982B97B9349A369AB4
:101D900080E090E0089581E090E0089588273699EA
:101DA00083950895009761F036990AC024B145B132
:101DB000342F3370FC012083318380E090E008955C
:101DC00081E090E00895CF93DF93EB01209769F0D5
:101DD0000E94BC0E892B49F40E94CE0E8130E1F3A3
:101DE000CE01DF91CF910C94D20E81E090E0DF9193
:101DF000CF9108950C94E30E0C94D20E813028F00C
:101E000031F4339A80E090E008953398FBCF81E07D
:101E100090E0089537983398359880E090E00895E1
:101E20008430A0F56830A8F5282F3DEF3203F0018B
:101E30001124413099F04230D1F041112DC022AD32
:101E400081E001C0880F6A95EAF78095282322AFC8
:101E500093AD892383AF80E090E0089582AD21E0C7
:101E600001C0220F6A95EAF7822B82AFF4CF22AD30
:101E700081E090E0AC0101C0440F6A95EAF7842F3D
:101E80008095822382AF83AD842BE4CF82E090E003
:101E9000089583E090E0089581E090E00895843013
:101EA000E8F46830F0F44230F8F4282F3DEF3203C4
:101EB000F001112421E030E0C90101C0880F6A95CA
:101EC000EAF7682F83AD413029F4862B83AF80E099
:101ED00090E008956095682363AFF9CF82E090E0C9
:101EE000089583E090E0089581E090E00895411521
:101EF0005105B1F08430B8F46830C0F4282F3DEFBC
:101F00003203F001112481AD90E002C095958795D0
:101F10006A95E2F78170FA01808380E090E008958D
:101F200081E090E0089582E090E0089583E090E001
:101F30000895843090F4683098F4282F3DEF3203F0
:101F4000F001112483AD21E001C0220F6A95EAF768
:101F5000822783AF80E090E0089582E090E00895CA
:101F600083E090E00895843090F4282F3DEF320311
:101F7000F0011124613020F039F081E090E0089503
:101F800012AE80E090E008958FEF82AFFACF82E04A
:101F900090E00895843048F4282F3DEF3203F0019B
:101FA000112463AF80E090E0089582E090E008950E
:101FB0006115710569F0843070F4282F3DEF32030C
:101FC000F001112481ADFB01808380E090E0089551
:101FD00081E090E0089582E090E008959B01AC01DB
:101FE000211531054105510519F481E090E008956E
:101FF00081B18C7F81B960E072E18AE790E00E9454
:102000005414203131054105510578F3C901DA0135
:10201000B695A795979587950897A109B109109747
:10202000910519F780B984E086BF80E090E00895BB
:1020300084E986BF06B604FCFDCF089584EA86BF16
:1020400006B607FEFDCF81B1887F883029F00E9457
:10205000181081E090E0089580E090E0089584EA0F
:1020600086BF06B607FEFDCF81B1887F803129F09B
:102070000E94181081E090E0089580E090E00895BB
:1020800087FD0DC0880F83B984E886BF06B607FEBA
:10209000FDCF81B1887F883129F00E94181081E03E
:1020A00090E0089580E090E0089587FD0EC0880FCD
:1020B000816083B984E886BF06B607FEFDCF81B193
:1020C000887F803429F00E94181081E090E0089504
:1020D00080E090E0089583B984E886BF06B607FEE5
:1020E000FDCF81B1887F883229F00E94181081E0ED
:1020F00090E0089580E090E00895FC01892B81F044
:10210000613088F069F484EC86BF06B607FEFDCF27
:1021100091B1987F613049F4903549F00E941810D0
:1021200081E090E0089584E8EFCF9835F6CF83B151
:10213000808380E090E0089581E080938503089596
:102140008FB780688FBF80E090E008958FB78F775A
:102150008FBF80E090E00895813079F08230C1F047
:10216000811122C0643000F585B78C7F85BF85B7AB
:10217000862B85BF80E090E008956430A8F485B791
:10218000837F85BF85B7660F660F682B65BFF2CF6B
:102190008EEF860F823040F484B7623019F48F7B63
:1021A00084BFE8CF8064FCCF81E090E00895813067
:1021B00051F0823059F081110CC08AB780648ABF17
:1021C00080E090E008958AB78068F9CF8AB780628E
:1021D000F6CF81E090E00895813069F0823089F097
:1021E000811115C08AB780648ABF8BB780648BBFAA
:1021F00080E090E008958AB780688ABF8BB78068D6
:10220000F6CF8AB780628ABF8BB78062F0CF81E059
:1022100090E00895813051F0823059F081110CC066
:102220008BB78F7B8BBF80E090E008958BB78F7763
:10223000F9CF8BB78F7DF6CF81E090E008958330A2
:1022400070F46115710559F0E82FF0E0EE0FFF1FF3
:10225000E158FC4F6083718380E090E0089581E055
:1022600090E008951F920F920FB60F9211242F93B2
:102270003F934F935F936F937F938F939F93AF930E
:10228000BF93EF93FF93E0917F03F091800330972A
:1022900009F00995FF91EF91BF91AF919F918F91B7
:1022A0007F916F915F914F913F912F910F900FBE52
:1022B0000F901F9018951F920F920FB60F92112436
:1022C0002F933F934F935F936F937F938F939F933E
:1022D000AF93BF93EF93FF93E0918103F09182035B
:1022E000309709F00995FF91EF91BF91AF919F91C0
:1022F0008F917F916F915F914F913F912F910F90AF
:102300000FBE0F901F9018951F920F920FB60F924D
:1023100011242F933F934F935F936F937F938F93EA
:102320009F93AF93BF93EF93FF93E0918303F0915B
:102330008403309709F00995FF91EF91BF91AF9118
:102340009F918F917F916F915F914F913F912F91CD
:102350000F900FBE0F901F9018951F920F920FB6FF
:102360000F9211242F933F934F935F936F937F931B
:102370008F939F93AF93BF93EF93FF930E94FE09B8
:10238000FF91EF91BF91AF919F918F917F916F914D
:102390005F914F913F912F910F900FBE0F901F9023
:1023A00018958430B0F493B7977B93BF823039F09F
:1023B000833049F0813051F080E090E0089583B798
:1023C000886083BFF9CF83B7886083BF83B7806499
:1023D000F8CF81E090E00895863048F493B7987F75
:1023E00093BF93B7982B93BF80E090E0089581E06E
:1023F00090E0089583B7887F83BF80E090E00895E0
:102400008CBF80E090E00895813038F049F489B7BE
:10241000826089BF80E090E0089589B78D7FF9CF11
:1024200081E090E008958536C0F495B5977895BD24
:1024300095B5986695BD2FEF829FC001112464E683
:1024400070E00E94401463BD85B5887F85BD85B569
:10245000866085BD80E090E0089581E090E0089579
:1024600085B5887F85BD85B58F7C85BD13BC80E033
:1024700090E00895009711F40C94301225B5277858
:1024800025BD25B5286625BD2FE723BD88392AE35C
:102490009207E0F4803D27E09207D0F48C3B22E0E5
:1024A0009207C0F48E3521E09207B0F48A3A910584
:1024B000A8F486349105A0F086E095B5987F95BD87
:1024C00095B5892B85BD80E090E0089581E0F5CF3A
:1024D00082E0F3CF83E0F1CF84E0EFCF85E0EDCF72
:1024E00087E0EBCF00977040604039F19B01AC0171
:1024F00084E0220F331F441F551F8A95D1F760E0F7
:1025000072E18AE790E00E945414215031091AB810
:10251000832F8F7080BD29B986E880BD549A539A65
:1025200010920A0410920904109208041092870372
:102530001092860380E090E0089581E090E0089595
:102540005D9BFECF8CB980E090E00895CF93DF9340
:10255000EC01892B31F481E090E008C021960E94C3
:10256000A01288818111FACF80E090E0DF91CF91B5
:102570000895909187039F5F9F7720918603291785
:1025800061F0E0918703F0E0E857FC4F808390937F
:102590008703559A80E090E0089581E090E00895E7
:1025A0000097E9F0FC01DC0180E090E02C91211122
:1025B00019C08038910598F43091870320918603E3
:1025C000321798F04091870320918603421B550BE8
:1025D0002FE730E0241B350B28173907E0F481E0A2
:1025E00090E0089511960196E1CF209186033091F5
:1025F0008703231B330B21503109EECF3196A09175
:102600008703B0E0A857BC4F8C93809187038F5FFE
:102610008F778093870380818111F0CF559A80E076
:1026200090E008959091870380918603981307C0E6
:1026300088275D998395982F990F990B089580E0CD
:1026400090E0089530910A042091090481E090E01F
:10265000321380E008950097B9F030910A04209178
:102660000904321789F0E0910904F0E0E55FFB4FBF
:102670002081FC012083809109048F5F8F738093F8
:10268000090480E090E0089581E090E008950097CB
:10269000B9F030910A04209109043217D1F3E09186
:1026A0000904F0E0E55FFB4F2081FC01208380916D
:1026B00009048F5F8F738093090480E090E0089590
:1026C00081E090E00895813028F031F4579A80E05D
:1026D00090E008955798FBCF81E090E00895813015
:1026E00028F031F4559A80E090E008955598FBCF9A
:1026F00081E090E008958091080408952F932FB70A
:102700002F938F939F93EF93FF939CB180910A0433
:102710008F5F8F732091090428130BC081E0809391
:102720000804FF91EF919F918F912F912FBF2F91CF
:102730001895E0910A04F0E0E55FFB4F90838093E9
:102740000A04EFCF8F938FB78F939F93EF93FF93ED
:102750009091870380918603981308C05598FF9144
:10276000EF919F918F918FBF8F911895E091860384
:10277000F0E0E857FC4F80818CB9809186038F5F31
:102780008F7780938603EBCF60E875E280E090E07E
:102790000E9472120E94340B0E942E0C8EE692E070
:1027A0000E943E068EE692E00E94F9038EE592E0DA
:1027B0000E94C1088EE692E00E9402010E94A609D2
:1027C0004AE050E06EEA70E080E00E94BD0944E615
:1027D00050E06CEA70E082E00E94BD0948EC50E0F5
:1027E0006AEA70E083E00E94BD094AE050E068EACE
:1027F00070E081E00E94BD0944EF51E06DE470E0BB
:1028000084E00E94BD0948E853E16BE470E085E094
:102810000E94BD0944E150E069E470E086E00E9456
:10282000BD0982E00E94D1118DE40E94001281E076
:102830000E94041285E00E94EC1181E00E94631363
:102840000E94A0100E94120AFDCFA29FB001B39F68
:10285000C001A39F700D811D1124911DB29F700DA9
:10286000811D1124911D0895992778E0880F991FE3
:10287000961708F0961B881F7A95C9F780950895DA
:10288000AA1BBB1B51E107C0AA1FBB1FA617B70796
:1028900010F0A61BB70B881F991F5A95A9F78095B2
:1028A0009095BC01CD010895A1E21A2EAA1BBB1B75
:1028B000FD010DC0AA1FBB1FEE1FFF1FA217B3070C
:1028C000E407F50720F0A21BB30BE40BF50B661F22
:1028D000771F881F991F1A9469F7609570958095E6
:1028E00090959B01AC01BD01CF0108954BE454E0EC
:1028F0000E9492140895FB01DC018D9101908019D2
:102900000110D9F3990B0895FB01DC0141505040AF
:1029100030F08D910190801919F40020B9F7881BCF
:10292000990B0895FA01A191B081009719F41097BD
:10293000E1F0CD01DC01CD010D90002011F4C001CA
:1029400013C0FB012191222319F02015D9F7F3CFF1
:10295000FB012191201519F41E92119606C0222325
:10296000C1F70D900020A1F7D001FA01A193B08327
:102970000895DC01CB01FC01E199FECF06C0FFBB4D
:10298000EEBBE09A31960DB20D9241505040B8F72F
:102990000895DC01A40FB51F4150504048F0CB0111
:1029A000840F951F2E910E94DA1441505040D0F7A9
:1029B0000895262FE199FECF9FBB8EBBE09A019729
:1029C0000DB2021631F02DBB0FB6F894E29AE19ADF
:0829D0000FBE0895F894FFCF3B
:1029D80001007C0081007C008E00543A00432053A3
:1029E8003A0025004C3A0025204D3A004155544FF5
:1029F800004D414E55414C00414C41524D00434F12
:102A08004E464947004F4B0D0A0045525220004898
:102A1800454C50005354415455532054454D503F54
:102A280020534F494C3F204C494748543F20434688
:102A3800473F205345542054454D504F4E2F544541
:102A48004D504F46462F534F494C4F4E2F534F49E9
:102A58004C4F46462F4C494748544F4E2F4C4947F8
:102A680048544F4646204D4F4445204155544F2F1A
:102A78004D414E55414C2046414E2F50554D502FFB
:102A88004C414D50204F4E2F4F46462052455345FE
:102A9800542044454641554C54532048454C500D0C
:102AA8000A00535441545553004255535900434664
:102AB800473F00415247004346473D002C005445DC
:102AC8004D503F00534F494C3F004C494748543FF5
:102AD8000054454D503D00534F494C3D004C49472B
:102AE80048543D00534554200054454D504F4E0026
:102AF80054454D504F464600534F494C4F4E005396
:102B08004F494C4F4646004C494748544F4E004C9D
:102B1800494748544F464600434D440052414E47AA
:102B280045004D4F444520004D4F44450046414E19
:102B3800200050554D5020004C414D502000444538
:102B48004641554C54530052455345540041435453
:102B5800495645004C4F4E470050554D502C54494E
:102B68004D454F555400494E4954002447482C546C
:102B78003D002C50554D505345433D002C533D00CE
:102B88002C4C3D002C463D002C503D002C4D3D006A
:102B98002C413D002C4D4F44453D002C55503D00E7
:102BA80053454E534F52204641554C542031005303
:102BB800454E534F52204641554C54203200534500
:0E2BC8004E534F52204641554C5420330000CE
:00000001FF
