:100000000C942A000C943B0F0C94640F0C948D0FED
:100010000C9447000C9447000C9447000C94470044
:100020000C9447000C9447000C94B60F0C944700B6
:100030000C9447000C9487110C94AB110C9447005E
:100040000C9447000C9447000C9447000C94470014
:100050000C94470011241FBECFE5D8E0DEBFCDBF12
:1000600012E0A0E6B0E0E0EBF5E202C005900D92F0
:10007000AA30B107D9F723E0AAE0B2E001C01D928F
:10008000A23CB207E1F70E94CD110C94D6120C9459
:10009000000008950C94BC000C94CB070C94400C09
:1000A0000C9418050C94D3090E948B06019731F427
:1000B0000E94B4030E94E4030C9415040895CF93A6
:1000C000DF9300D000D0CDB7DEB7843650F164E6C0
:1000D0000E943012805D8983892F91E021E0290FF1
:1000E000FE013196E90FF11D6AE00E943012805D39
:1000F0008083892FFE013196E20FF11D805D8083A0
:100100002F5FFE013196E20FF11D1082CE010196A4
:100110000E94AF100F900F900F900F90DF91CF9132
:10012000089520E08A3030F390E0D8CF8CE690E05C
:100130000C94AF10CF93DF9300D0CDB7DEB7898397
:100140009A8381E790E00E94AF1089819A810E9492
:10015000AF108EE690E00F900F90DF91CF910C944E
:10016000AF10809325029093260210920B021092FA
:100170000A0280E090E00895CF92DF92EF92FF9222
:100180000F931F93CF93DF93CDB7DEB72E970FB6A4
:10019000F894DEBF0FBECDBF0E942B11892BC1F496
:1001A000CE010E960E9450118C0181E090E0011565
:1001B000110581F48E8590910A028D3019F08A30F4
:1001C00009F0AFC29115A9F010920A0210920B0229
:1001D00080E090E02E960FB6F894DEBF0FBECDBF44
:1001E000DF91CF911F910F91FF90EF90DF90CF9013
:1001F000089590910B02911559F3E92FF0E0BF019A
:10020000645F7D4FFB0110822CE032E0D9018D91BB
:100210004FE9480F4A3108F48052AD01415051096D
:10022000FA0180838A2F821B891788F3FB011082D1
:1002300066E770E08CE092E00E947712892B29F447
:100240008BE790E00E94AF10C1CF69E071E08CE0D5
:1002500092E00E947712892B51F40E943007892B7B
:1002600009F4B4CF80E191E00E949A00AFCF65E13C
:1002700071E08CE092E00E947712892B09F064C053
:100280008091250290912602892B19F48AE191E050
:10029000EBCF8EE191E00E94AF10E0912502F0914A
:1002A000260283810E945F0083E291E00E94AF10EA
:1002B000E0912502F091260284810E945F0083E292
:1002C00091E00E94AF10E0912502F0912602858115
:1002D0000E945F0083E291E00E94AF10E09125024E
:1002E000F091260286810E945F0083E291E00E94E5
:1002F000AF10E0912502F091260287810E945F00F5
:1003000083E291E00E94AF10E0912502F091260275
:1003100080850E945F0083E291E00E94AF10E0912F
:100320002502F091260281850E945F0083E291E020
:100330000E94AF10E0912502F091260282850E9472
:100340005F008EE690E07ECF65E271E08CE092E0A7
:100350000E947712892BD1F06BE271E08CE092E081
:100360000E947712892BF9F061E371E08CE092E052
:100370000E947712892B09F5CE0101960E94FE0B8F
:10038000892B09F023CF84E491E009C0CE010196C6
:100390000E94E60B892B09F019CF88E391E00E94B7
:1003A000AF108981CCCFCE0101960E94F20B892B30
:1003B00009F00CCF8EE391E0F2CF44E050E06BE423
:1003C00071E08CE092E00E948012892B09F0DCC081
:1003D0008091250290912602892B09F457CF6DE870
:1003E00071E080E192E00E9472126C016DE871E0B0
:1003F00080E090E00E9472127C01C114D10409F4E3
:1004000045CF892B09F442CF6DE871E080E090E0A0
:100410000E947212892B09F039CFF70190814E2F7B
:100420008F2F31969032D1F3E42FF82F5AE0E52E3A
:10043000F12C208120532A3008F45FC09E2F819137
:100440008032E9F3491709F421CF81111FCFE091E0
:100450002502F09126022DE0CE010196DC010190EB
:100460000D922A95E1F77C01111158C160E571E008
:10047000C6010E947712892B09F055C00C839C811C
:1004800086EF890F893208F07CC08D81833308F0B4
:1004900078C08E5F981708F474C09E818BEF890F27
:1004A0008B3508F06EC08F812BEF280F2B3508F0AD
:1004B00068C0981708F065C09885953608F061C047
:1004C0008985853608F05DC0981708F05AC0C701C5
:1004D0000E949F06892B09F0D9CE0E949906892B8C
:1004E00009F0D4CEA0912502B09126028DE0F7014B
:1004F00001900D928A95E1F7F4C030E0822F80954B
:100500009FEFB7010E943C126017710708F4BECE3E
:1005100031965AE0509FC001519F900D11248901DE
:10052000080F191F86CF67E571E0C6010E94771298
:10053000892B11F40D83A3CF6FE571E0C6010E94F2
:100540007712892B11F40E839ACF66E671E0C6010B
:100550000E947712892B11F40F8391CF6EE671E020
:10056000C6010E947712892B11F4088788CF66E7AD
:1005700071E0C6010E947712892B09F0CFC009876C
:100580007ECF83E891E070CE45E050E069E871E00D
:100590008CE092E00E948012892BF1F46FE871E008
:1005A00081E192E00E947712892B51F481E090E082
:1005B0000E94BA06892B09F494C084E991E054CED4
:1005C00069E971E081E192E00E947712892B09F0DC
:1005D0005DCE82E090E0ECCF44E050E060EA71E074
:1005E0008CE092E00E948012892B09F459C045E00A
:1005F00050E065EA71E08CE092E00E948012892B65
:1006000009F472C045E050E06BEA71E08CE092E0E2
:100610000E94801232E0C32ED12C892B09F467C0CE
:1006200061EB71E08CE092E00E947712892B09F077
:1006300066C0E0912502F0912602309709F426CE9B
:100640008DE0DE01119601900D928A95E1F783EC21
:1006500095EA89839A8381E08B8383E28C8380E2AD
:100660008D8388E28E839CE39F8399E198878987B5
:100670008DE28A878FE08B87CE0101960E949F06CC
:10068000892B09F003CE0E949906892B09F0FECD33
:10069000A0912502B09126028DE0FE01319628CF6F
:1006A000C12CD12C20E1E22E22E0F22E63E671E093
:1006B000C7010E947712892BF9F06AE671E0C70141
:1006C0000E947712892B09F0E1CD0E948B060297D8
:1006D00009F073CFB801C6010E94DD08892B09F02B
:1006E000D5CD0E94960072CD91E0C92ED12C81E12A
:1006F000E82E82E0F82EDACF01E010E0E6CF6AEBD8
:1007000071E08CE092E00E947712892B39F40E940C
:100710009306892B31F380EC91E0A6CD8FE791E031
:10072000A3CD911155CDE0910B02E83140F081E06D
:1007300080930A0287EC91E00E949A0049CD91E0F3
:100740009E0F90930B02F0E0E45FFD4F808340CD5D
:10075000009739F0809327029093280280E090E080
:10076000089581E090E00895CF93DF930F92CDB785
:10077000DEB78091270290912802892B31F481E025
:1007800090E00F90DF91CF910895CE0101960E94E5
:10079000E60B0097A1F7E0912702F091280229814A
:1007A000338161E070E0321730F03481231748F76D
:1007B00060E070E0CB010E94DD0821E0892B09F4A4
:1007C00020E0822F90E0DDCFCF93DF930F92CDB763
:1007D000DEB78091270290912802892B31F481E0C5
:1007E00090E00F90DF91CF910895CE0101960E9485
:1007F000F20B0097A1F7E0912702F09128022981DE
:10080000358161E070E0231728F03681321748F710
:1008100060E070E081E090E00E94DD0821E0892B3B
:1008200009F420E0822F90E0DCCFCF93DF930F928A
:10083000CDB7DEB78091270290912802892B31F441
:1008400081E090E00F90DF91CF910895CE01019665
:100850000E94FE0B0097A1F7E0912702F091280279
:100860002981378161E070E0231728F03085321745
:1008700048F760E070E082E090E00E94DD0821E04F
:10088000892B09F420E0822F90E0DCCF0E94B40392
:10089000892B31F40E94E403892B11F40C94150484
:1008A00081E090E0089560E070E0CB010E94DD08F7
:1008B00060E070E081E090E00E94DD0860E070E0C0
:1008C00082E090E00E94DD0860E070E083E090E06C
:1008D0000E94DD0860E070E084E090E00C94DD08A8
:1008E000CF93DF9300D0CDB7DEB780913F029091D8
:1008F0004002892B11F480E019C0CE0102960E94BB
:10090000E60B892BC1F7CE0101960E94F20B892BD1
:1009100091F7E0913F02F091400291858A8198170A
:1009200050F081E092852981291728F70F900F90C8
:10093000DF91CF91089581E0F9CFCF93DF93CDB7C9
:10094000DEB72F970FB6F894DEBF0FBECDBFE09194
:100950003F02F091400281E090E0309789F18DE014
:10096000DE01119601900D928A95E1F783EC95EAEC
:1009700089839A8381E08B83FE0131969E01235FF8
:100980003F4F80E0EE87FF879191890FE217F307D1
:10099000D9F781958D874DE050E060E070E08E855D
:1009A0009F850E94B512A0913F02B09140028DE058
:1009B000EE85FF8501900D928A95E1F780E090E049
:1009C0002F960FB6F894DEBF0FBECDBFDF91CF914B
:1009D0000895009751F180933F0290934002109246
:1009E0003D0210923E0221E02093620010926300CB
:1009F00010923C0210923B0210923A02109239027D
:100A0000209360001092610010922A0210922B0233
:100A1000109229022DE0FC01ACE2B2E001900D92AF
:100A20002A95E1F780E090E0089581E090E0089554
:100A3000FF920F931F93CF93DF93CDB7DEB7289725
:100A40000FB6F894DEBF0FBECDBF80913F029091EC
:100A50004002892B79F401E010E0C80128960FB616
:100A6000F894DEBF0FBECDBFDF91CF911F910F91E4
:100A7000FF9008951B821C8219821A828E010D5FDD
:100A80001F4FB80182E090E00E94260A0F8318876A
:100A9000009729F010922A0210922B024BC0BE013F
:100AA0006F5F7F4F0E94260A892BA1F78B819C8163
:100AB000019781F789819A81019761F780912A02D4
:100AC00090912B028C3221E0920708F464C01092BE
:100AD0002A0210922B02E0913F02F091400283EC37
:100AE00095EA8083918381E0828383E2838380E23D
:100AF000848388E285839CE3968399E1978380874A
:100B00008DE281878FE0828713868DE0ACE2B2E0D0
:100B100001900D928A95E1F710923C0210923B02EF
:100B200010923A02109239020E94530410923D0230
:100B300010923E02BE016A5F7F4F81E090E00E940A
:100B4000400A009709F087CFBE016B5F7F4F0E947C
:100B5000400A8C01892B09F07ECF809139028115E2
:100B6000E9F11092390280913C02811137C08091E5
:100B700060009091610082309105B1F480933D0254
:100B800090933E02FE800E947004811117C0F11400
:100B900009F463CF3BC0019680932A0290932B0205
:100BA0008C32914039F693CF81E080933D021092D0
:100BB0003E02FE800E947004811559F180913D0231
:100BC00090913E02809362009093630081E0809355
:100BD0003C021092290283E090E020C080913D0207
:100BE00090913E0283309105F1F020F4019750F08E
:100BF00049F6DFCF049709F47BC010923D021092B2
:100C00003E022BCF0E94530410923C0281E090E000
:100C100005C082E090E0F11409F41FCF80933D02FB
:100C200090933E021ACFFD8061E070E00E94DD08E3
:100C30008F8198850E94E60B892B81F4E0913F0219
:100C4000F09140028B81918561E070E0981710F07F
:100C500060E070E080E090E00E94DD08CE01019647
:100C60000E94F20B892B81F4E0913F02F091400247
:100C70009981828561E070E0981710F060E070E083
:100C800081E090E00E94DD088091290261E070E03F
:100C90008A3010F060E070E084E090E00E94DD08AF
:100CA000809129028F5F843608F080E080932902CA
:100CB00080913B02F82A09F4D0CE0E947004811181
:100CC000CCCE10923C0210923B0260E070E083E0D8
:100CD00090E00E94DD0860E070E084E090E00E9417
:100CE000DD0810922902809162009091630096CFF6
:100CF00080913A02811509F4B0CEA0913F02B091E3
:100D000040028DE0ECE2F2E001900D928A95E1F76D
:100D100010923A027BCF80913D0290913E0208955D
:100D200080913C02089581E080933B0280E090E056
:100D3000089581E080933A0280E090E00895FC01FC
:100D400080913F0290914002892B89F0309779F091
:100D50009DE0ACE2B2E001900D929A95E1F784E05B
:100D600090E080933D0210923E0280E0089581E081
:100D700090E008959C01215031092230310570F432
:100D800020913C0221110AC0809360009093610081
:100D900081E08093390280E090E0089581E090E066
:100DA0000895FB012081211519F08F33910508F07A
:100DB00008956F5F7F4FFC01ED59FD4F2083019631
:100DC000F0CF0F931F93CF93DF9300D000D00F92FB
:100DD000CDB7DEB7482F392FFB018E010F5F1F4FB4
:100DE00020E0CF016AE070E00E943C12D8018C93B1
:100DF000822F2F5F3A9730F00F5F1F4FFB01253096
:100E000081F784E0FE013196E80FF11D842F932FC6
:100E100021508F33910538F4DC01AD59BD4F30813D
:100E2000305D3C93019631972111F2CF0F900F90D6
:100E30000F900F900F90DF91CF911F910F91089518
:100E4000009759F08093A3029093A402109241025C
:100E50001092420280E090E0089581E090E00895D1
:100E6000CF93DF93C091A302D091A402209709F4FD
:100E70008DC061ED71E080E090E00E94D1066E814E
:100E800070E00E94E10668ED71E00E94D1066F817A
:100E900070E00E94E1066CED71E00E94D106688569
:100EA00070E00E94E10660EE71E00E94D106698563
:100EB00070E00E94E10664EE71E00E94D1066A854E
:100EC00070E00E94E10668EE71E00E94D1066B8539
:100ED00070E00E94E1066CEE71E00E94D1066C8524
:100EE00070E00E94E10660EF71E00E94D106ED859E
:100EF000E1506CEC71E0E43038F4F0E0EE0FFF1FED
:100F0000EC59FF4F608171810E94D10667EF71E05B
:100F10000E94D1066E857F850E94E1069C01FC013E
:100F2000ED59FD4F1082A3E6B2E090E08C91811163
:100F300022C08AE28083892F82958F70903A10F5C3
:100F4000805DD901AC59BD4F8C939F709A30E0F40D
:100F5000905DD901AB59BD4F9C932A593D4F8DE00F
:100F6000D9018C938AE08483158283E692E0DF9135
:100F7000CF910C94D910119642E0A33AB407C9F26C
:100F80009827D4CF895CDDCF995CE3CF81E090E0F6
:100F9000DF91CF9108958091A3029091A402892BB3
:100FA00011F00C94300781E090E00895009759F11A
:100FB00021E22093430225E42093440226E5209376
:100FC000450224E5209346022CE220934702FC01CF
:100FD000A8E4B2E020E030E08081811519F02831EA
:100FE000310561F4F901ED5BFD4F8DE085838AE009
:100FF0008683178283E492E00C94D91031968D9306
:101000002F5F3F4FE9CF81E090E00895809141024A
:10101000909142020895E8EAF2E010821182128271
:101020001382148215821682379682E0E93DF80712
:10103000A1F71092A7021092A5021092A60280E0DA
:1010400090E00895E82F9B01CA01E730D0F4672BA8
:10105000C1F04A305105A8F06AE070E00E943C12ED
:10106000009779F447E0E49FF0011124E855FD4F23
:1010700020833183628373831482158221E0268367
:10108000089581E090E00895873058F497E0899FB3
:10109000F0011124E855FD4F81E0868380E090E067
:1010A000089581E090E00895873050F497E0899F9B
:1010B000F0011124E855FD4F168280E090E008957C
:1010C00081E090E008958091A702811561F0809100
:1010D000A5029091A6028F3F980729F00196809370
:1010E000A5029093A60281E08093A7020895CF9372
:1010F000DF938091A7028115E9F01092A702C8EA58
:10110000D2E08E81811589F08C819D8101968C833E
:101110009D832A813B818217930738F01C821D82B0
:10112000E881F981309709F00995279682E0C93D59
:10113000D80739F7DF91CF9108958091A50290915A
:10114000A6020895CF93DF9300D0CDB7DEB7898391
:101150006A8341E00E94190D892B49F440E06A81BD
:1011600089810F900F90DF91CF910C94580D81E001
:1011700090E00F900F90DF91CF91089560E081E0B3
:101180000E94A208892BB1F461E081E00E94A208CC
:10119000892B81F462E081E00E94A208892B51F43E
:1011A00063E081E00E94A208892B21F467E083E0DC
:1011B0000C94A20881E090E008959C0162307105D2
:1011C000A0F482309105A1F048F491E0232B09F4BA
:1011D00090E081E0462F692F0C94580D039751F051
:1011E00083E097E024303105A9F381E090E0089591
:1011F00092E0EFCF93E0EDCFCF93DF9300D000D01C
:1012000000D0CDB7DEB769837A834B835C832D83AF
:101210003E83BC0180E090E00E94DD08892BF1F460
:1012200069817A8181E090E00E94DD08892BB1F428
:101230006B817C8182E090E00E94DD08892B71F453
:101240006D817E8183E090E00F900F900F900F9062
:101250000F900F90DF91CF910C94DD0881E090E02A
:101260000F900F900F900F900F900F90DF91CF91F4
:1012700008950F931F93CF93DF930F92CDB7DEB7EF
:101280008B011982672BF1F08230910519F1A8F4D6
:1012900061E0892B09F460E081E0AE014F5F5F4FB0
:1012A0000E94800D009771F421E04981413009F0DE
:1012B00020E0F8012083118207C08330910561F09E
:1012C000049761F081E090E00F90DF91CF911F9142
:1012D0000F91089562E0E0CF63E0DECF67E083E046
:1012E000DCCF41E067E083E00C94580D40E067E01C
:1012F00083E00C94580DCF93DF930F92CDB7DEB7F8
:101300001982AE014F5F5F4F67E083E00E94800D5E
:10131000892B61F48981811106C00E9471090F90A7
:10132000DF91CF9108950E947609F9CF81E090E096
:10133000F6CF1092D9021092DA021092DB021092CC
:10134000DC021092DD021092DE021092DF02109297
:10135000E0021092E1021092E2021092E302109277
:10136000E4021092E5021092E6021092E702109257
:10137000E8021092E9021092EA0242E062E083E0A1
:101380000E94190D892B61F442E063E083E00E9422
:10139000190D892B29F442E064E083E00C94190DC7
:1013A00081E090E00895FF920F931F93CF93DF9316
:1013B0000F92CDB7DEB709ED12E0F12C81E0898301
:1013C00063E0F81629F0E2E062E0FE1201C064E09A
:1013D000AE014F5F5F4F83E00E94800D892BE9F4DF
:1013E00021E08981811120E0822F90E0F8012281A3
:1013F000338128173907A1F0828313821482F39472
:101400000A5F1F4FF3E0FF12D9CF80E00F90DF910A
:10141000CF911F910F91FF90089580E090E0E6CF6B
:101420002481223070F0F80120813181281739079A
:1014300031F3808311828130910509F781E0858342
:10144000DECF2F5F24832230D1F6EDCF833091059C
:10145000A0F46115710589F046E0489F9001499F0D
:10146000300D112427523D4FF90180819181FB01FC
:101470008083918380E090E0089581E090E008957A
:101480008330910590F46115710579F026E0289F6D
:10149000F001299FF00D1124E752FD4F8581DB01FA
:1014A0008C93158280E090E0089581E090E00895AB
:1014B0008330910568F446E0489F9001499F300DC4
:1014C000112427523D4FF901158280E090E00895E4
:1014D00081E090E00895CF93DF9300D0CDB7DEB7E1
:1014E00089836A830E94270E892BA1F48EE30E94D0
:1014F000490E892B31F00F900F90DF91CF910C9412
:10150000210E89810E94740E892BA9F78A810E947D
:10151000740EF1CF0F900F90DF91CF910895682F47
:1015200080E00C946B0A60EA76E881E090E00E942B
:10153000F70D2FE788E391E0215080409040E1F7DC
:1015400000C0000088E30E948F0A8FE097E20197B5
:10155000F1F700C0000089E30E948F0A8FEC97E04A
:101560000197F1F700C0000084E10E948F0A88E72C
:101570000E948F0A8EE50E948F0A8AE60E948F0AD7
:101580009FEF21EE84E0915020408040E1F700C0C1
:10159000000088E30E948F0A8FEC97E00197F1F733
:1015A00000C000008CE00E948F0A8FEC97E001974A
:1015B000F1F700C0000081E00E948F0A8FE99FE0F0
:1015C0000197F1F700C0000086E00E948F0A8FECBF
:1015D00097E00197F1F700C00000089581E00E94B4
:1015E0008F0A8FE99FE00197F1F700C0000008958E
:1015F00082E00E948F0A8FE99FE00197F1F700C017
:1016000000000895603108F06FE0811104C080E8A7
:10161000860F0C948F0A80ECFBCFCF93DF93EC0105
:10162000892B39F4DF91CF910895219680E40E94AF
:101630006B0A68816111F9CFF5CF1F93CF93DF93C8
:1016400000D000D00F92CDB7DEB79C0110E0892BFF
:1016500061F460E380E40F900F900F900F900F9073
:10166000DF91CF911F910C946B0AC9016AE070E081
:101670000E943C12FE013196E10FF11D805D8083D6
:10168000C9019B011F5F0A9780F7111109C00F90D4
:101690000F900F900F900F90DF91CF911F910895B1
:1016A0001150FE013196E10FF11D608180E40E942E
:1016B0006B0AEBCF8CE00C948F0A88E00C948F0AB5
:1016C000CF93DF93CDB7DEB729970FB6F894DEBF7F
:1016D0000FBECDBF8F8368877987BE016B5F7F4F59
:1016E0000E94EC0C892B59F081E090E029960FB60E
:1016F000F894DEBF0FBECDBFDF91CF910895BE013C
:101700006D5F7F4F8F810E94EC0C892B69F7BE01C2
:101710006F5F7F4F8F810E94EC0C009729F76981E2
:101720007A812B813C814D815E812417350748F4F5
:101730006217730768F09B014217530748F49A0138
:1017400007C064177507D8F36217730708F49B0185
:10175000E885F98520833183C9CF1092F202109277
:10176000F3021092F0021092F1021092EE02109227
:10177000EF021092ED021092EC021092EB0266E082
:1017800081E00C949E0C0097F1F061157105D9F081
:1017900041155105C1F02091F2023091F302FC0194
:1017A000208331838091F0029091F102FB018083CC
:1017B00091838091EE029091EF02FA0180839183F0
:1017C00080E090E0089581E090E00895009739F07E
:1017D0002091ED02FC01208380E090E0089581E0FB
:1017E00090E00895009739F02091EC02FC012083ED
:1017F00080E090E0089581E090E00895009739F04E
:101800002091EB02FC01208380E090E0089581E0CC
:1018100090E00895CF93DF93EB01209799F09430F7
:1018200088F49C01A2E3B0E00E9421122FEF33E084
:1018300040E050E00E945012288380E090E0DF9169
:10184000CF91089581E090E0FACFCF93DF93EB0141
:10185000209799F0943088F49C01A4E6B0E00E94AF
:1018600021122FEF33E040E050E00E945012288315
:1018700080E090E0DF91CF91089581E090E0FACF91
:10188000CF92DF92EF92FF920F931F93CF93DF934C
:1018900000D000D000D0CDB7DEB7BE016B5F7F4F68
:1018A00080E00E94600B892B89F081E090E00F902E
:1018B0000F900F900F900F900F90DF91CF911F918D
:1018C0000F91FF90EF90DF90CF900895BE016D5F74
:1018D0007F4F81E00E94600B892B39F7BE016F5F5B
:1018E0007F4F82E00E94600B892BF9F6CD80DE806D
:1018F0006DEE72E0C6010E940A0C892BB1F6EB80F6
:10190000FC806CEE72E0C7010E94250C892B69F601
:1019100009811A816BEE72E0C8010E94250C0097C4
:1019200021F6C092F202D092F302E092F002F0921D
:10193000F1020093EE021093EF02B9CF823011F161
:101940009FEF960F9730F0F4379897B19F7397B940
:1019500097B18295880F880F807C892B87B93D9835
:1019600087B1807E87B987B187B986B1887F86B90C
:1019700086B1682B66B935983398349A379A80E0E7
:1019800090E0089581E090E00895883068F43699F9
:101990000BC097B1907E97B997B1982B97B9349AAD
:1019A000369A80E090E0089581E090E008958827DD
:1019B000369983950895009761F036990AC024B14D
:1019C00045B1342F3370FC012083318380E090E0F7
:1019D000089581E090E00895CF93DF93EB01209785
:1019E00069F00E94C50C892B49F40E94D70C813004
:1019F000E1F3CE01DF91CF910C94DB0C81E090E01C
:101A0000DF91CF9108950C94EC0C0C94DB0C813099
:101A100028F031F4339A80E090E008953398FBCFBA
:101A200081E090E0089537983398359880E090E011
:101A300008958430A0F56830A8F5282F3DEF3203D3
:101A4000F0011124413099F04230D1F041112DC004
:101A500022AD81E001C0880F6A95EAF780952823BE
:101A600022AF93AD892383AF80E090E0089582ADEB
:101A700021E001C0220F6A95EAF7822B82AFF4CFF2
:101A800022AD81E090E0AC0101C0440F6A95EAF715
:101A9000842F8095822382AF83AD842BE4CF82E0B4
:101AA00090E0089583E090E0089581E090E008954B
:101AB0008430E8F46830F0F44230F8F4282F3DEF39
:101AC0003203F001112421E030E0C90101C0880F88
:101AD0006A95EAF7682F83AD413029F4862B83AFEE
:101AE00080E090E008956095682363AFF9CF82E0CD
:101AF00090E0089583E090E0089581E090E00895FB
:101B000041155105B1F08430B8F46830C0F4282F85
:101B10003DEF3203F001112481AD90E002C09595B4
:101B200087956A95E2F78170FA01808380E090E002
:101B3000089581E090E0089582E090E0089583E0C8
:101B400090E00895843090F4683098F4282F3DEFA9
:101B50003203F001112483AD21E001C0220F6A9508
:101B6000EAF7822783AF80E090E0089582E090E07A
:101B7000089583E090E00895843090F4282F3DEF9D
:101B80003203F0011124613020F039F081E090E05F
:101B9000089512AE80E090E008958FEF82AFFACF03
:101BA00082E090E00895843048F4282F3DEF32031E
:101BB000F001112463AF80E090E0089582E090E0AE
:101BC00008956115710569F0843070F4282F3DEF98
:101BD0003203F001112481ADFB01808380E090E0AD
:101BE000089581E090E0089582E090E008959B01DF
:101BF000AC01211531054105510519F481E090E052
:101C0000089581B18C7F81B960E072E18AE790E04C
:101C10000E945012203131054105510578F3C90168
:101C2000DA01B695A795979587950897A109B10907
:101C30001097910519F780B984E086BF80E090E0A5
:101C4000089584E986BF06B604FCFDCF089584EAB2
:101C500086BF06B607FEFDCF81B1887F883029F0A8
:101C60000E94210E81E090E0089580E090E00895C8
:101C700084EA86BF06B607FEFDCF81B1887F80313A
:101C800029F00E94210E81E090E0089580E090E02C
:101C9000089587FD0DC0880F83B984E886BF06B616
:101CA00007FEFDCF81B1887F883129F00E94210E87
:101CB00081E090E0089580E090E0089587FD0EC0F7
:101CC000880F816083B984E886BF06B607FEFDCF22
:101CD00081B1887F803429F00E94210E81E090E05C
:101CE000089580E090E0089583B984E886BF06B641
:101CF00007FEFDCF81B1887F883229F00E94210E36
:101D000081E090E0089580E090E00895FC01892B47
:101D100081F0613088F069F484EC86BF06B607FE76
:101D2000FDCF91B1987F613049F4903549F00E9420
:101D3000210E81E090E0089584E8EFCF9835F6CF4A
:101D400083B1808380E090E0089581E08093F40285
:101D500008958FB780688FBF80E090E008958FB7B7
:101D60008F778FBF80E090E00895813079F08230E6
:101D7000C1F0811122C0643000F585B78C7F85BF2A
:101D800085B7862B85BF80E090E008956430A8F485
:101D900085B7837F85BF85B7660F660F682B65BFE4
:101DA000F2CF8EEF860F823040F484B7623019F4A0
:101DB0008F7B84BFE8CF8064FCCF81E090E0089502
:101DC000813051F0823059F081110CC08AB78064A3
:101DD0008ABF80E090E008958AB78068F9CF8AB71B
:101DE0008062F6CF81E090E00895813069F0823022
:101DF00089F0811115C08AB780648ABF8BB780646F
:101E00008BBF80E090E008958AB780688ABF8BB767
:101E10008068F6CF8AB780628ABF8BB78062F0CFC6
:101E200081E090E00895813051F0823059F08111C5
:101E30000CC08BB78F7B8BBF80E090E008958BB791
:101E40008F77F9CF8BB78F7DF6CF81E090E0089543
:101E5000833070F46115710559F0E82FF0E0EE0F52
:101E6000FF1FEB50FD4F6083718380E090E0089589
:101E700081E090E008951F920F920FB60F92112407
:101E80002F933F934F935F936F937F938F939F9382
:101E9000AF93BF93EF93FF93E091F502F091F602B9
:101EA000309709F00995FF91EF91BF91AF919F9104
:101EB0008F917F916F915F914F913F912F910F90F3
:101EC0000FBE0F901F9018951F920F920FB60F9292
:101ED00011242F933F934F935F936F937F938F932F
:101EE0009F93AF93BF93EF93FF93E091F702F0912D
:101EF000F802309709F00995FF91EF91BF91AF91EA
:101F00009F918F917F916F915F914F913F912F9111
:101F10000F900FBE0F901F9018951F920F920FB643
:101F20000F9211242F933F934F935F936F937F935F
:101F30008F939F93AF93BF93EF93FF93E091F90239
:101F4000F091FA02309709F00995FF91EF91BF9156
:101F5000AF919F918F917F916F915F914F913F9141
:101F60002F910F900FBE0F901F9018951F920F92F8
:101F70000FB60F9211242F933F934F935F936F935C
:101F80007F938F939F93AF93BF93EF93FF930E94A1
:101F90006308FF91EF91BF91AF919F918F917F91D6
:101FA0006F915F914F913F912F910F900FBE0F90C6
:101FB0001F9018958430B0F493B7977B93BF82300D
:101FC00039F0833049F0813051F080E090E008959D
:101FD00083B7886083BFF9CF83B7886083BF83B737
:101FE0008064F8CF81E090E00895863048F493B79C
:101FF000987F93BF93B7982B93BF80E090E00895AC
:1020000081E090E0089583B7887F83BF80E090E00F
:1020100008958CBF80E090E00895813038F049F455
:1020200089B7826089BF80E090E0089589B78D7F8D
:10203000F9CF81E090E008958536C0F495B59778A2
:1020400095BD95B5986695BD2FEF829FC00111246F
:1020500064E670E00E943C1263BD85B5887F85BD53
:1020600085B5866085BD80E090E0089581E090E0D0
:10207000089585B5887F85BD85B58F7C85BD13BCEA
:1020800080E090E00895009711F40C94391025B584
:10209000277825BD25B5286625BD2FE723BD8839BE
:1020A0002AE39207E0F4803D27E09207D0F48C3BCE
:1020B00022E09207C0F48E3521E09207B0F48A3A0C
:1020C0009105A8F486349105A0F086E095B5987F37
:1020D00095BD95B5892B85BD80E090E0089581E0A0
:1020E000F5CF82E0F3CF83E0F1CF84E0EFCF85E05E
:1020F000EDCF87E0EBCF00977040604039F19B0156
:10210000AC0184E0220F331F441F551F8A95D1F77D
:1021100060E072E18AE790E00E945012215031099C
:102120001AB8832F8F7080BD29B986E880BD549A74
:10213000539A10927F0310927E0310927D031092A7
:10214000FC021092FB0280E090E0089581E090E0B4
:1021500008955D9BFECF8CB980E090E00895CF9309
:10216000DF93EC01892B31F481E090E008C02196E7
:102170000E94A91088818111FACF80E090E0DF9160
:10218000CF9108959091FC029F5F9F772091FB0271
:10219000291761F0E091FC02F0E0E350FD4F8083ED
:1021A0009093FC02559A80E090E0089581E090E0E1
:1021B00008950097E9F0FC01DC0180E090E02C91AB
:1021C000211119C08038910598F43091FC022091BA
:1021D000FB02321798F04091FC022091FB02421B57
:1021E000550B2FE730E0241B350B28173907E0F497
:1021F00081E090E0089511960196E1CF2091FB02D5
:102200003091FC02231B330B21503109EECF319664
:10221000A091FC02B0E0A350BD4F8C938091FC02D2
:102220008F5F8F778093FC0280818111F0CF559A68
:1022300080E090E008959091FC028091FB02981359
:1022400007C088275D998395982F990F990B08955A
:1022500080E090E0089530917F0320917E0381E03B
:1022600090E0321380E008950097B9F030917F0339
:1022700020917E03321789F0E0917E03F0E0E05870
:10228000FC4F2081FC01208380917E038F5F8F7340
:1022900080937E0380E090E0089581E090E00895CF
:1022A0000097B9F030917F0320917E033217D1F36C
:1022B000E0917E03F0E0E058FC4F2081FC01208398
:1022C00080917E038F5F8F7380937E0380E090E028
:1022D000089581E090E00895813028F031F4579A14
:1022E00080E090E008955798FBCF81E090E008955A
:1022F000813028F031F4559A80E090E008955598A7
:10230000FBCF81E090E0089580917D0308952F93A5
:102310002FB72F938F939F93EF93FF939CB180914F
:102320007F038F5F8F7320917E0328130BC081E0A2
:1023300080937D03FF91EF919F918F912F912FBFFC
:102340002F911895E0917F03F0E0E058FC4F9083C7
:1023500080937F03EFCF8F938FB78F939F93EF93EC
:10236000FF939091FC028091FB02981308C055984E
:10237000FF91EF919F918F918FBF8F911895E09171
:10238000FB02F0E0E350FD4F80818CB98091FB02AD
:102390008F5F8F778093FB02EBCF0E94BE080E9475
:1023A00099090E94AD0B60E875E280E090E00E9420
:1023B0007B100E94930A0E940B084AE050E062E5FD
:1023C00070E080E00E9422084AE050E060E570E0A2
:1023D00081E00E94220844E650E06EE470E082E072
:1023E0000E94220848EC50E064E570E083E00E941F
:1023F000220844EF51E069E470E084E00E94220882
:1024000048E853E16CE470E085E00E94220844E172
:1024100050E06AE470E086E00E94220882E00E94B8
:10242000DA0F8DE40E94091081E00E940D1085E012
:102430000E94F50F81E00E946C1178940E94770849
:10244000FDCFA29FB001B39FC001A39F700D811D5E
:102450001124911DB29F700D811D1124911D0895AD
:10246000992778E0880F991F961708F0961B881F08
:102470007A95C9F780950895AA1BBB1B51E107C047
:10248000AA1FBB1FA617B70710F0A61BB70B881F04
:10249000991F5A95A9F780959095BC01CD01089593
:1024A000A1E21A2EAA1BBB1BFD010DC0AA1FBB1F58
:1024B000EE1FFF1FA217B307E407F50720F0A21BCA
:1024C000B30BE40BF50B661F771F881F991F1A9437
:1024D00069F760957095809590959B01AC01BD0161
:1024E000CF01089540EC53E00E948E120895FB0145
:1024F000DC018D91019080190110D9F3990B089599
:10250000FB01DC014150504030F08D910190801969
:1025100019F40020B9F7881B990B0895FA01A191CD
:10252000B081009719F41097E1F0CD01DC01CD01E5
:102530000D90002011F4C00113C0FB012191222352
:1025400019F02015D9F7F3CFFB012191201519F4CB
:102550001E92119606C02223C1F70D900020A1F70C
:10256000D001FA01A193B0830895DC01A40FB51F37
:102570004150504048F0CB01840F951F2E910E948E
:10258000C61241505040D0F70895262FE199FECF52
:102590009FBB8EBBE09A01970DB2021631F02DBBA6
:1025A0000FB6F894E29AE19A0FBE0895F894FFCF1F
:1025B000010001008F019901FC0102024F4B0D0A3D
:1025C00000455252200048454C5000535441545548
:1025D000532054454D503F20534F494C3F204C49C8
:1025E0004748543F204346473F20534554205445D5
:1025F0004D504F4E2F54454D504F46462F534F4947
:102600004C4F4E2F534F494C4F46462F4C4947484D
:10261000544F4E2F4C494748544F4646204D4F4447
:1026200045204155544F2F4D414E55414C20464178
:102630004E2F50554D502F4C414D50204F4E2F4F47
:1026400046462052455345542044454641554C5436
:10265000532048454C500D0A0053544154555300E3
:1026600042555359004346473F00415247004346B5
:10267000473D002C0054454D503F00534F494C3FBF
:10268000004C494748543F0054454D503D00534F7E
:10269000494C3D004C494748543D005345542000A7
:1026A00054454D504F4E0054454D504F46460053F3
:1026B0004F494C4F4E00534F494C4F4646004C49F2
:1026C0004748544F4E004C494748544F46460043F4
:1026D0004D440052414E4745004D4F444520004176
:1026E00055544F004D4F4445004D414E55414C000F
:1026F00046414E200050554D5020004C414D502039
:102700000044454641554C545300524553455400EE
:10271000414354495645004C4F4E4700494E495499
:10272000002447482C543D002C533D002C4C3D00C8
:102730002C463D002C503D002C4D3D002C413D00D1
:102740002C4D4F44453D002C55503D00414C4152CD
:0A2750004D00434F4E46494700007C
:00000001FF
