:100000000C942A000C94790F0C94A20F0C94CB0F33
:100010000C9447000C9447000C9447000C94470044
:100020000C9447000C9447000C94F40F0C94470078
:100030000C9447000C94AC110C94D0110C94470014
:100040000C9447000C9447000C9447000C94470014
:100050000C94470011241FBECFE5D8E0DEBFCDBF12
:1000600012E0A0E6B0E0E0E3F6E202C005900D92F7
:10007000AA32B107D9F724E0AAE2B2E001C01D928A
:10008000A030B207E1F70E94F2110C9416130C9401
:1000900000000C9498010E941B07019711F40C9426
:1000A000220508950C94830C0C94A8050C94630A03
:1000B000CF93DF93CDB7DEB728970FB6F894DEBFA6
:1000C0000FBECDBF1F8218861D821E821B821C821E
:1000D00019821A82AE014D5F5F4FBE016B5F7F4F89
:1000E000CE0107960E94060C81E392E00E94290C43
:1000F00082E392E00E94350C83E392E00E94410C7F
:100100008F81988580932B0290932C028D819E8104
:1001100080932D0290932E028B819C8180932F02DD
:1001200090933002BE016F5F7F4F80E090E00E94AD
:10013000C909898180933402BE016F5F7F4F81E0DE
:1001400090E00E94C909898180933502BE016F5FEA
:100150007F4F82E090E00E94C90989818093360236
:10016000BE016F5F7F4F83E090E00E94C9098981E3
:10017000809337020E941B078093380228960FB69F
:10018000F894DEBF0FBECDBFDF91CF9108950E94DE
:1001900058000C945B080E94580080912A028F5FDF
:1001A000823008F050C080932A0260E080E00E9414
:1001B0004E0B8FED91E00E94560B8091310290E042
:1001C0000E94660B8CE690E00E94560B80913202F2
:1001D00090E00E94660B8FE690E00E94560B8091A3
:1001E000330290E00E94660B89E890E00E94560B73
:1001F00060E081E00E944E0B8DE891E00E94560B7A
:100200008091340290E00E94660B82E790E00E94A9
:10021000560B8091350290E00E94660B8FE690E0CD
:100220000E94560B8091360290E00E94660B8BE88C
:1002300090E00E94560B809138028230A1F485E74D
:1002400090E00C94560B10922A0280913902909102
:100250003A028F3F980709F4A8CF0196809339029C
:1002600090933A02A2CF833019F48DE790E0E9CF62
:1002700085E890E0E6CFCF93DF9300D000D0CDB7F4
:10028000DEB7843650F164E60E949112805D898366
:10029000892F91E021E0290FFE013196E90FF11D30
:1002A0006AE00E949112805D8083892FFE01319661
:1002B000E20FF11D805D80832F5FFE013196E20F1A
:1002C000F11D1082CE0101960E94D4100F900F9064
:1002D0000F900F90DF91CF91089520E08A3030F396
:1002E00090E0D8CF8DE890E00C94D410CF93DF93BA
:1002F00000D0CDB7DEB789839A8382E990E00E946F
:10030000D41089819A810E94D4108FE890E00F90D8
:100310000F90DF91CF910C94D4108093630290934F
:100320006402109249021092480280E090E0089521
:10033000CF92DF92EF92FF920F931F93CF93DF93B1
:10034000CDB7DEB72E970FB6F894DEBF0FBECDBF88
:100350000E945011892BC1F4CE010E960E94751196
:100360008C0181E090E00115110581F48E8590915A
:1003700048028D3019F08A3009F0AFC29115A9F00A
:10038000109248021092490280E090E02E960FB63B
:10039000F894DEBF0FBECDBFDF91CF911F910F91BB
:1003A000FF90EF90DF90CF900895909149029115C2
:1003B00059F3E92FF0E0BF01665B7D4FFB0110822E
:1003C0002AE432E0D9018D914FE9480F4A3108F40F
:1003D0008052AD0141505109FA0180838A2F821B5E
:1003E000891788F3FB01108267E970E08AE492E0E4
:1003F0000E94D812892B29F48CE990E00E94D41035
:10040000C1CF6AE271E08AE492E00E94D812892B9F
:1004100051F40E94C007892B09F4B4CF81E391E025
:100420000E947601AFCF66E371E08AE492E00E9419
:10043000D812892B09F064C0809163029091640204
:10044000892B19F48BE391E0EBCF8FE391E00E94CD
:10045000D410E0916302F091640283810E943B0119
:1004600084E491E00E94D410E0916302F091640270
:1004700084810E943B0184E491E00E94D410E091C9
:100480006302F091640285810E943B0184E491E063
:100490000E94D410E0916302F091640286810E9470
:1004A0003B0184E491E00E94D410E0916302F0915A
:1004B000640287810E943B0184E491E00E94D41091
:1004C000E0916302F091640280850E943B0184E424
:1004D00091E00E94D410E0916302F0916402818562
:1004E0000E943B0184E491E00E94D410E0916302F9
:1004F000F091640282850E943B018FE890E07ECFFC
:1005000066E471E08AE492E00E94D812892BD1F06F
:100510006CE471E08AE492E00E94D812892BF9F031
:1005200062E571E08AE492E00E94D812892B09F515
:10053000CE0101960E94410C892B09F023CF85E65C
:1005400091E009C0CE0101960E94290C892B09F087
:1005500019CF89E591E00E94D4108981CCCFCE01DA
:1005600001960E94350C892B09F00CCF8FE591E0A4
:10057000F2CF44E050E06CE671E08AE492E00E9441
:10058000E112892B09F0DCC0809163029091640232
:10059000892B09F457CF6BE870E08EE492E00E945B
:1005A000D3126C016BE870E080E090E00E94D312FF
:1005B0007C01C114D10409F445CF892B09F442CF41
:1005C0006BE870E080E090E00E94D312892B09F084
:1005D00039CFF70190814E2F8F2F31969032D1F382
:1005E000E42FF82F5AE0E52EF12C208120532A30F9
:1005F00008F45FC09E2F81918032E9F3491709F416
:1006000021CF81111FCFE0916302F09164022DE0B0
:10061000CE010196DC0101900D922A95E1F77C0153
:10062000111158C161E771E0C6010E94D812892BEF
:1006300009F055C00C839C8186EF890F893208F040
:100640007CC08D81833308F078C08E5F981708F4E2
:1006500074C09E818BEF890F8B3508F06EC08F813F
:100660002BEF280F2B3508F068C0981708F065C0ED
:100670009885953608F061C08985853608F05DC09B
:10068000981708F05AC0C7010E942F07892B09F05C
:10069000D9CE0E942907892B09F0D4CEA0916302FC
:1006A000B09164028DE0F70101900D928A95E1F717
:1006B000F4C030E0822F80959FEFB7010E949D1219
:1006C0006017710708F4BECE31965AE0509FC00102
:1006D000519F900D11248901080F191F86CF68E7DB
:1006E00071E0C6010E94D812892B11F40D83A3CFAB
:1006F00060E871E0C6010E94D812892B11F40E83C4
:100700009ACF67E871E0C6010E94D812892B11F4D4
:100710000F8391CF6FE871E0C6010E94D812892B38
:1007200011F4088788CF67E971E0C6010E94D812EA
:10073000892B09F0CFC009877ECF84EA91E070CE83
:1007400045E050E06AEA71E08AE492E00E94E1123A
:10075000892BF1F460EB71E08FE492E00E94D812F3
:10076000892B51F481E090E00E944A07892B09F41B
:1007700094C085EB91E054CE6AEB71E08FE492E097
:100780000E94D812892B09F05DCE82E090E0ECCF78
:1007900044E050E061EC71E08AE492E00E94E112F2
:1007A000892B09F459C045E050E066EC71E08AE419
:1007B00092E00E94E112892B09F472C045E050E0FA
:1007C0006CEC71E08AE492E00E94E11232E0C32E08
:1007D000D12C892B09F467C062ED71E08AE492E0C4
:1007E0000E94D812892B09F066C0E0916302F09153
:1007F0006402309709F426CE8DE0DE011196019057
:100800000D928A95E1F783EC95EA89839A8381E0DA
:100810008B8383E28C8380E28D8388E28E839CE3EA
:100820009F8399E1988789878DE28A878FE08B87FC
:10083000CE0101960E942F07892B09F003CE0E945A
:100840002907892B09F0FECDA0916302B0916402C3
:100850008DE0FE01319628CFC12CD12C2EE4E22E62
:1008600022E0F22E64E871E0C7010E94D812892BC1
:10087000F9F06BE871E0C7010E94D812892B09F0EA
:10088000E1CD0E941B07029709F073CFB801C601A2
:100890000E946D09892B09F0D5CD0E94720172CD9D
:1008A00091E0C92ED12C8FE4E82E82E0F82EDACF29
:1008B00001E010E0E6CF6BED71E08AE492E00E9487
:1008C000D812892B39F40E942307892B31F381EE4A
:1008D00091E0A6CD80EA91E0A3CD911155CDE091B4
:1008E0004902E83140F081E08093480288EE91E0CF
:1008F0000E94760149CD91E09E0F90934902F0E06D
:10090000E65BFD4F808340CD009739F08093650210
:100910009093660280E090E0089581E090E0089571
:10092000CF93DF930F92CDB7DEB7809165029091A0
:100930006602892B31F481E090E00F90DF91CF9136
:100940000895CE0101960E94290C0097A1F7E0912D
:100950006502F09166022981338161E070E032170F
:1009600030F03481231748F760E070E0CB010E943B
:100970006D0921E0892B09F420E0822F90E0DDCF82
:10098000CF93DF930F92CDB7DEB780916502909140
:100990006602892B31F481E090E00F90DF91CF91D6
:1009A0000895CE0101960E94350C0097A1F7E091C1
:1009B0006502F09166022981358161E070E02317BC
:1009C00028F03681321748F760E070E081E090E06F
:1009D0000E946D0921E0892B09F420E0822F90E02C
:1009E000DCCFCF93DF930F92CDB7DEB78091650256
:1009F00090916602892B31F481E090E00F90DF91B5
:100A0000CF910895CE0101960E94410C0097A1F765
:100A1000E0916502F09166022981378161E070E022
:100A2000231728F03085321748F760E070E082E045
:100A300090E00E946D0921E0892B09F420E0822FCB
:100A400090E0DCCF0E949004892B31F40E94C00416
:100A5000892B11F40C94F10481E090E0089560E09A
:100A600070E0CB010E946D0960E070E081E090E0F1
:100A70000E946D0960E070E082E090E00E946D09E4
:100A800060E070E083E090E00E946D0960E070E05B
:100A900084E090E00C946D09CF93DF9300D0CDB744
:100AA000DEB780917D0290917E02892B11F480E067
:100AB00019C0CE0102960E94290C892BC1F7CE01E4
:100AC00001960E94350C892B91F7E0917D02F091FF
:100AD0007E0291858A81981750F081E09285298164
:100AE000291728F70F900F90DF91CF91089581E09B
:100AF000F9CF009751F180937D0290937E0210927E
:100B00007B0210927C0221E020936200109263002D
:100B100010927A0210927902109278021092770263
:100B20002093600010926100109268021092690296
:100B3000109267022DE0FC01AAE6B2E001900D924E
:100B40002A95E1F780E090E0089581E090E0089533
:100B5000FF920F931F93CF93DF93CDB7DEB7289704
:100B60000FB6F894DEBF0FBECDBF80917D0290918D
:100B70007E02892B79F401E010E0C80128960FB6B7
:100B8000F894DEBF0FBECDBFDF91CF911F910F91C3
:100B9000FF9008951B821C8219821A828E010D5FBC
:100BA0001F4FB80182E090E00E94B60A0F831887B9
:100BB000009729F010926802109269024BC0BE01A2
:100BC0006F5F7F4F0E94B60A892BA1F78B819C81B2
:100BD000019781F789819A81019761F78091680275
:100BE000909169028C3221E0920708F464C010925F
:100BF000680210926902E0917D02F0917E0283EC1E
:100C000095EA8083918381E0828383E2838380E21B
:100C1000848388E285839CE3968399E19783808728
:100C20008DE281878FE0828713868DE0AAE6B2E0AD
:100C300001900D928A95E1F710927A021092790252
:100C400010927802109277020E942F0510927B0278
:100C500010927C02BE016A5F7F4F81E090E00E94AB
:100C6000D00A009709F087CFBE016B5F7F4F0E94CB
:100C7000D00A8C01892B09F07ECF809177028115F3
:100C8000E9F11092770280917A02811137C0809148
:100C900060009091610082309105B1F480937B02F5
:100CA00090937C02FE800E944C05811117C0F114C4
:100CB00009F463CF3BC00196809368029093690268
:100CC0008C32914039F693CF81E080937B02109271
:100CD0007C02FE800E944C05811559F180917B02B7
:100CE00090917C02809362009093630081E08093F6
:100CF0007A021092670283E090E020C080917B022C
:100D000090917C0283309105F1F020F4019750F02E
:100D100049F6DFCF049709F47BC010927B02109252
:100D20007C022BCF0E942F0510927A0281E090E086
:100D300005C082E090E0F11409F41FCF80937B029C
:100D400090937C021ACFFD8061E070E00E946D09F3
:100D50008F8198850E94290C892B81F4E0917D0276
:100D6000F0917E028B81918561E070E0981710F020
:100D700060E070E080E090E00E946D09CE01019695
:100D80000E94350C892B81F4E0917D02F0917E0266
:100D90009981828561E070E0981710F060E070E062
:100DA00081E090E00E946D098091670261E070E04F
:100DB0008A3010F060E070E084E090E00E946D09FD
:100DC000809167028F5F843608F080E0809367022D
:100DD00080917902F82A09F4D0CE0E944C05811145
:100DE000CCCE10927A021092790260E070E083E03B
:100DF00090E00E946D0960E070E084E090E00E9465
:100E00006D0910926702809162009091630096CF05
:100E100080917802811509F4B0CEA0917D02B09145
:100E20007E028DE0EAE6F2E001900D928A95E1F70C
:100E3000109278027BCF80917B0290917C02089582
:100E400080917A02089581E08093790280E090E0B9
:100E5000089581E08093780280E090E00895FC019D
:100E600080917D0290917E02892B89F0309779F0F4
:100E70009DE0AAE6B2E001900D929A95E1F784E038
:100E800090E080937B0210927C0280E0089581E0E4
:100E900090E008959C01215031092230310570F411
:100EA00020917A0221110AC0809360009093610022
:100EB00081E08093770280E090E0089581E090E007
:100EC0000895FB012081211519F08F33910508F059
:100ED00008956F5F7F4FFC01EF55FD4F2083019612
:100EE000F0CF0F931F93CF93DF9300D000D00F92DA
:100EF000CDB7DEB7482F392FFB018E010F5F1F4F93
:100F000020E0CF016AE070E00E949D12D8018C932E
:100F1000822F2F5F3A9730F00F5F1F4FFB01253074
:100F200081F784E0FE013196E80FF11D842F932FA5
:100F300021508F33910538F4DC01AF55BD4F30811E
:100F4000305D3C93019631972111F2CF0F900F90B5
:100F50000F900F900F90DF91CF911F910F910895F7
:100F6000009759F08093E1029093E20210927F0281
:100F70001092800280E090E0089581E090E0089572
:100F8000CF93DF93C091E102D091E202209709F460
:100F90008DC062EF71E080E090E00E9461076E8199
:100FA00070E00E94710769EF71E00E9461076F8134
:100FB00070E00E9471076DEF71E00E946107688523
:100FC00070E00E94710761E072E00E94610769852C
:100FD00070E00E94710765E072E00E9461076A8517
:100FE00070E00E94710769E072E00E9461076B8502
:100FF00070E00E9471076DE072E00E9461076C85ED
:1010000070E00E94710761E172E00E946107ED8566
:10101000E1506DEE71E0E43038F4F0E0EE0FFF1FC8
:10102000EC59FF4F608171810E94610768E172E0B5
:101030000E9461076E857F850E9471079C01FC01FB
:10104000EF55FD4F1082A1EAB2E090E08C91811142
:1010500022C08AE28083892F82958F70903A10F5A2
:10106000805DD901AE55BD4F8C939F709A30E0F4EE
:10107000905DD901AD55BD4F9C932C553D4F8DE0F2
:10108000D9018C938AE08483158281EA92E0DF9112
:10109000CF910C94FE10119642E0A13EB407C9F224
:1010A0009827D4CF895CDDCF995CE3CF81E090E0D5
:1010B000DF91CF9108958091E1029091E202892B16
:1010C00011F00C94C00781E090E00895009759F169
:1010D00021E22093810225E42093820226E52093D9
:1010E000830224E5209384022CE220938502FC01F4
:1010F000A6E8B2E020E030E08081811519F02831C7
:10110000310561F4F901EF57FD4F8DE085838AE0E9
:101110008683178281E892E00C94FE1031968D93BD
:101120002F5F3F4FE9CF81E090E0089580917F02EB
:10113000909180020895E6EEF2E010821182128210
:101140001382148215821682379683E0E731F807FE
:10115000A1F71092E5021092E3021092E40280E0FF
:1011600090E00895E82F9B01CA01E730D0F4672B87
:10117000C1F04A305105A8F06AE070E00E949D126B
:10118000009779F447E0E49FF0011124EA51FD4F04
:1011900020833183628373831482158221E0268346
:1011A000089581E090E00895873058F497E0899F92
:1011B000F0011124EA51FD4F81E0868380E090E048
:1011C000089581E090E00895873050F497E0899F7A
:1011D000F0011124EA51FD4F168280E090E008955D
:1011E00081E090E008958091E502811561F08091A1
:1011F000E3029091E4028F3F980729F001968093D3
:10120000E3029093E40281E08093E5020895CF9396
:10121000DF938091E5028115E9F01092E502C6EEB8
:10122000D2E08E81811589F08C819D8101968C831D
:101230009D832A813B818217930738F01C821D828F
:10124000E881F981309709F00995279683E0C73145
:10125000D80739F7DF91CF9108958091E3029091FB
:10126000E4020895CF93DF9300D0CDB7DEB7898332
:101270006A8341E00E945A0D892B49F440E06A815B
:1012800089810F900F90DF91CF910C94990D81E09F
:1012900090E00F900F90DF91CF91089560E081E092
:1012A0000E943209892BB1F461E081E00E94320989
:1012B000892B81F462E081E00E943209892B51F48C
:1012C00063E081E00E943209892B21F467E083E02A
:1012D0000C94320981E090E008959C016230710520
:1012E000A0F482309105A1F048F491E0232B09F499
:1012F00090E081E0462F692F0C94990D039751F0EF
:1013000083E097E024303105A9F381E090E008956F
:1013100092E0EFCF93E0EDCFCF93DF9300D000D0FA
:1013200000D0CDB7DEB769837A834B835C832D838E
:101330003E83BC0180E090E00E946D09892BF1F4AE
:1013400069817A8181E090E00E946D09892BB1F476
:101350006B817C8182E090E00E946D09892B71F4A1
:101360006D817E8183E090E00F900F900F900F9041
:101370000F900F90DF91CF910C946D0981E090E078
:101380000F900F900F900F900F900F90DF91CF91D3
:1013900008950F931F93CF93DF930F92CDB7DEB7CE
:1013A0008B011982672BF1F08230910519F1A8F4B5
:1013B00061E0892B09F460E081E0AE014F5F5F4F8F
:1013C0000E94C10D009771F421E04981413009F07C
:1013D00020E0F8012083118207C08330910561F07D
:1013E000049761F081E090E00F90DF91CF911F9121
:1013F0000F91089562E0E0CF63E0DECF67E083E025
:10140000DCCF41E067E083E00C94990D40E067E0B9
:1014100083E00C94990DCF93DF930F92CDB7DEB795
:101420001982AE014F5F5F4F67E083E00E94C10DFC
:10143000892B61F48981811106C00E94010A0F90F5
:10144000DF91CF9108950E94060AF9CF81E090E0E4
:10145000F6CF1092170310921803109219031092EE
:101460001A0310921B0310921C0310921D0310927A
:101470001E0310921F03109220031092210310925A
:10148000220310922303109224031092250310923A
:101490002603109227031092280342E062E083E0C3
:1014A0000E945A0D892B61F442E063E083E00E94C0
:1014B0005A0D892B29F442E064E083E00C945A0D24
:1014C00081E090E00895FF920F931F93CF93DF93F5
:1014D0000F92CDB7DEB707E113E0F12C81E08983ED
:1014E00063E0F81629F0E2E062E0FE1201C064E079
:1014F000AE014F5F5F4F83E00E94C10D892BE9F47D
:1015000021E08981811120E0822F90E0F801228181
:10151000338128173907A1F0828313821482F39450
:101520000A5F1F4FF3E0FF12D9CF80E00F90DF91E9
:10153000CF911F910F91FF90089580E090E0E6CF4A
:101540002481223070F0F801208131812817390779
:1015500031F3808311828130910509F781E0858321
:10156000DECF2F5F24832230D1F6EDCF833091057B
:10157000A0F46115710589F046E0489F9001499FEC
:10158000300D1124295E3C4FF90180819181FB01CE
:101590008083918380E090E0089581E090E0089559
:1015A0008330910590F46115710579F026E0289F4C
:1015B000F001299FF00D1124E95EFC4F8581DB01CC
:1015C0008C93158280E090E0089581E090E008958A
:1015D0008330910568F446E0489F9001499F300DA3
:1015E0001124295E3C4FF901158280E090E00895B6
:1015F00081E090E00895CF93DF9300D0CDB7DEB7C0
:1016000089836A830E94620E892BA1F48EE30E9473
:10161000870E892B31F00F900F90DF91CF910C94B2
:10162000840E89810E94B20E892BA9F78A810E94BB
:10163000B20EF1CF0F900F90DF91CF910895682FE8
:1016400080E00C94FB0A60EA76E881E090E00E947A
:10165000380E2FE788E391E0215080409040E1F779
:1016600000C0000088E30E941F0B8CE00E941F0B4B
:1016700081E00E941F0B8FE99FE00197F1F700C006
:10168000000086E00C941F0B81E00E941F0B8FE985
:101690009FE00197F1F700C000000895811104C098
:1016A00080E8860F0C941F0B80ECFBCFCF93DF9369
:1016B000EC01892B39F4DF91CF910895219680E4D4
:1016C0000E94FB0A68816111F9CFF5CF1F93CF9378
:1016D000DF9300D000D00F92CDB7DEB79C0110E0B1
:1016E000892B61F460E380E40F900F900F900F90CE
:1016F0000F90DF91CF911F910C94FB0AC9016AE012
:1017000070E00E949D12FE013196E10FF11D805D97
:101710008083C9019B011F5F0A9780F7111109C0DF
:101720000F900F900F900F900F90DF91CF911F911E
:1017300008951150FE013196E10FF11D608180E4A2
:101740000E94FB0AEBCFCF93DF93CDB7DEB729978B
:101750000FB6F894DEBF0FBECDBF8F836887798741
:10176000BE016B5F7F4F0E942D0D892B59F081E0E8
:1017700090E029960FB6F894DEBF0FBECDBFDF9183
:10178000CF910895BE016D5F7F4F8F810E942D0D17
:10179000892B69F7BE016F5F7F4F8F810E942D0DEE
:1017A000009729F769817A812B813C814D815E8187
:1017B0002417350748F46217730768F09B01421736
:1017C000530748F49A0107C064177507D8F36217E6
:1017D000730708F49B01E885F98520833183C9CF1D
:1017E000109230031092310310922E0310922F03A7
:1017F00010922C0310922D0310922B0310922A03A7
:101800001092290366E080E00C94E10C0097F1F05F
:1018100061157105D9F041155105C1F020913003D2
:1018200030913103FC012083318380912E0390910C
:101830002F03FB018083918380912C0390912D03D2
:10184000FA018083918380E090E0089581E090E048
:101850000895009739F020912B03FC01208380E04C
:1018600090E0089581E090E00895009739F020918C
:101870002A03FC01208380E090E0089581E090E05D
:101880000895009739F020912903FC01208380E01E
:1018900090E0089581E090E00895CF93DF93EB010D
:1018A000209799F0943088F49C01A2E3B0E00E9464
:1018B00082122FEF33E040E050E00E94B112288303
:1018C00080E090E0DF91CF91089581E090E0FACF41
:1018D000CF93DF93EB01209799F0943088F49C012B
:1018E000A4E6B0E00E9482122FEF33E040E050E027
:1018F0000E94B112288380E090E0DF91CF9108959B
:1019000081E090E0FACFCF92DF92EF92FF920F93B7
:101910001F93CF93DF9300D000D000D0CDB7DEB7B8
:10192000BE016B5F7F4F80E00E94A30B892B89F083
:1019300081E090E00F900F900F900F900F900F901C
:10194000DF91CF911F910F91FF90EF90DF90CF909B
:101950000895BE016D5F7F4F81E00E94A30B892B2C
:1019600039F7BE016F5F7F4F82E00E94A30B892B86
:10197000F9F6CD80DE806BE273E0C6010E944D0C6B
:10198000892BB1F6EB80FC806AE273E0C7010E940C
:10199000680C892B69F609811A8169E273E0C80134
:1019A0000E94680C009721F6C0923003D092310358
:1019B000E0922E03F0922F0300932C0310932D033B
:1019C000B9CF843008F59FEF960F9730E8F4379839
:1019D00097B19F7397B997B18295880F880F807CD4
:1019E000892B87B93D9887B1807E87B987B187B940
:1019F00086B1887F86B986B1682B66B935983398E9
:101A0000379A80E090E0089581E090E00895883072
:101A100060F436990AC097B1907E97B997B1982B28
:101A200097B9369A80E090E0089581E090E00895BB
:101A30008827369983950895009761F036990AC0F2
:101A400024B145B1342F3370FC012083318380E011
:101A500090E0089581E090E00895CF93DF93EB014B
:101A6000209769F00E94070D892B49F40E94180DF8
:101A70008130E1F3CE01DF91CF910C941C0D81E018
:101A800090E0DF91CF9108950C942D0D0C941C0DD6
:101A9000813028F031F4339A80E090E00895339853
:101AA000FBCF81E090E0089537983398359880E037
:101AB00090E008958430A0F56830A8F5282F3DEF18
:101AC0003203F0011124413099F04230D1F041113C
:101AD0002DC022AD81E001C0880F6A95EAF780959C
:101AE000282322AF93AD892383AF80E090E008954F
:101AF00082AD21E001C0220F6A95EAF7822B82AF06
:101B0000F4CF22AD81E090E0AC0101C0440F6A95B2
:101B1000EAF7842F8095822382AF83AD842BE4CFB4
:101B200082E090E0089583E090E0089581E090E005
:101B300008958430E8F46830F0F44230F8F4282F47
:101B40003DEF3203F001112421E030E0C90101C072
:101B5000880F6A95EAF7682F83AD413029F4862B08
:101B600083AF80E090E008956095682363AFF9CF7C
:101B700082E090E0089583E090E0089581E090E0B5
:101B8000089541155105B1F08430B8F46830C0F4BF
:101B9000282F3DEF3203F001112481AD90E002C007
:101BA000959587956A95E2F78170FA01808380E0C8
:101BB00090E0089581E090E0089582E090E008953B
:101BC00083E090E00895843090F4683098F4282FF2
:101BD0003DEF3203F001112483AD21E001C0220F5B
:101BE0006A95EAF7822783AF80E090E0089582E06B
:101BF00090E0089583E090E00895843090F4282FD9
:101C00003DEF3203F0011124613020F039F081E022
:101C100090E0089512AE80E090E008958FEF82AFDB
:101C2000FACF82E090E00895843048F4282F3DEF09
:101C30003203F001112463AF80E090E0089582E068
:101C400090E008956115710569F0843070F4282FD3
:101C50003DEF3203F001112481ADFB01808380E070
:101C600090E0089581E090E0089582E090E008958A
:101C70009B01AC01211531054105510519F481E0A5
:101C800090E0089581B18C7F81B960E072E18AE7CC
:101C900090E00E94B112203131054105510578F3E1
:101CA000C901DA01B695A795979587950897A10977
:101CB000B1091097910519F780B984E086BF80E0DB
:101CC00090E0089584EA86BF06B607FEFDCF81B195
:101CD000887F883029F084E986BF81E090E008950C
:101CE00080E090E0089584EA86BF06B607FEFDCF47
:101CF00081B1887F803129F084E986BF81E090E05E
:101D0000089580E090E0089584E986BF089587FDF6
:101D10000DC0880F83B984E886BF06B607FEFDCFE5
:101D200081B1887F883129F084E986BF81E090E025
:101D3000089580E090E0089587FD0EC0880F8160CF
:101D400083B984E886BF06B607FEFDCF81B1887FE0
:101D5000803429F084E986BF81E090E0089580E036
:101D600090E0089583B984E886BF06B607FEFDCFEC
:101D700081B1887F883229F084E986BF81E090E0D4
:101D8000089580E090E00895FC01892B81F0613096
:101D900088F069F484EC86BF06B607FEFDCF91B1EA
:101DA000987F613049F4903549F084E986BF81E03D
:101DB00090E0089584E8EFCF9835F6CF83B1808323
:101DC00080E090E0089581E08093320308958FB71A
:101DD00080688FBF80E090E008958FB78F778FBFC6
:101DE00080E090E00895813079F08230C1F0811177
:101DF00022C0643000F585B78C7F85BF85B7862B00
:101E000085BF80E090E008956430A8F485B7837FB3
:101E100085BF85B7660F660F682B65BFF2CF8EEF63
:101E2000860F823040F484B7623019F48F7B84BF10
:101E3000E8CF8064FCCF81E090E00895813051F0DC
:101E4000823059F081110CC08AB780648ABF80E06B
:101E500090E008958AB78068F9CF8AB78062F6CF9C
:101E600081E090E00895813069F0823089F081113D
:101E700015C08AB780648ABF8BB780648BBF80E04F
:101E800090E008958AB780688ABF8BB78068F6CFE4
:101E90008AB780628ABF8BB78062F0CF81E090E022
:101EA0000895813051F0823059F081110CC08BB708
:101EB0008F7B8BBF80E090E008958BB78F77F9CF51
:101EC0008BB78F7DF6CF81E090E00895833070F47A
:101ED0006115710559F0E82FF0E0EE0FFF1FED5C82
:101EE000FC4F6083718380E090E0089581E090E092
:101EF00008951F920F920FB60F9211242F933F93C4
:101F00004F935F936F937F938F939F93AF93BF9301
:101F1000EF93FF93E0913303F0913403309709F08E
:101F20000995FF91EF91BF91AF919F918F917F9113
:101F30006F915F914F913F912F910F900FBE0F9036
:101F40001F9018951F920F920FB60F9211242F9386
:101F50003F934F935F936F937F938F939F93AF9331
:101F6000BF93EF93FF93E0913503F09136033097E1
:101F700009F00995FF91EF91BF91AF919F918F91DA
:101F80007F916F915F914F913F912F910F900FBE75
:101F90000F901F9018951F920F920FB60F92112459
:101FA0002F933F934F935F936F937F938F939F9361
:101FB000AF93BF93EF93FF93E0913703F091380312
:101FC000309709F00995FF91EF91BF91AF919F91E3
:101FD0008F917F916F915F914F913F912F910F90D2
:101FE0000FBE0F901F9018958F9381E0809332035E
:101FF0008F9118958430B0F493B7977B93BF82305C
:1020000039F0833049F0813051F080E090E008955C
:1020100083B7886083BFF9CF83B7886083BF83B7F6
:102020008064F8CF81E090E00895863048F493B75B
:10203000987F93BF93B7982B93BF80E090E008956B
:1020400081E090E0089583B7887F83BF80E090E0CF
:1020500008958CBF80E090E00895813038F049F415
:1020600089B7826089BF80E090E0089589B78D7F4D
:10207000F9CF81E090E008958536C0F495B5977862
:1020800095BD95B5986695BD2FEF829FC00111242F
:1020900064E670E00E949D1263BD85B5887F85BDB2
:1020A00085B5866085BD80E090E0089581E090E090
:1020B000089585B5887F85BD85B58F7C85BD13BCAA
:1020C00080E090E00895009711F40C94591025B524
:1020D000277825BD25B5286625BD2FE723BD25B565
:1020E000287F25BD88392AE3920730F085B58160C5
:1020F00085BD80E090E00895803D27E0920718F0CC
:1021000085B58260F5CF8C3B22E0920718F085B54B
:102110008360EECF8E3521E0920718F085B584609C
:10212000E7CF8A3A910518F085B58560E1CF86340E
:10213000910518F085B58660DBCF85B58760D8CF6F
:1021400000977040604039F19B01AC0184E0220FA0
:10215000331F441F551F8A95D1F760E072E18AE76B
:1021600090E00E94B112215031091AB8832F8F706C
:1021700080BD29B986E880BD549A539A1092BD0358
:102180001092BC031092BB0310923A0310923903D1
:1021900080E090E0089581E090E008955D9BFECF9F
:1021A0008CB980E090E00895CF93DF93EC01892B08
:1021B00031F481E090E008C021960E94CE10888121
:1021C0008111FACF80E090E0DF91CF910895909156
:1021D0003A039F5F9F7720913903291761F0E091BF
:1021E0003A03F0E0E55CFC4F808390933A03559A04
:1021F00080E090E0089581E090E008950097E9F094
:10220000FC01DC0180E090E02C91211119C08038A4
:10221000910598F430913A0320913903321798F0E0
:1022200040913A0320913903421B550B2FE730E0D0
:10223000241B350B28173907E0F481E090E008955E
:1022400011960196E1CF2091390330913A03231B77
:10225000330B21503109EECF3196A0913A03B0E013
:10226000A55CBC4F8C9380913A038F5F8F778093EE
:102270003A0380818111F0CF559A80E090E0089573
:1022800090913A0380913903981307C088275D998C
:102290008395982F990F990B089580E090E0089509
:1022A0003091BD032091BC0381E090E0321380E0C7
:1022B00008950097B9F03091BD032091BC03321707
:1022C00089F0E091BC03F0E0E254FC4F2081FC0176
:1022D00020838091BC038F5F8F738093BC0380E069
:1022E00090E0089581E090E008950097B9F0309172
:1022F000BD032091BC033217D1F3E091BC03F0E0A1
:10230000E254FC4F2081FC0120838091BC038F5F4D
:102310008F738093BC0380E090E0089581E090E0AB
:102320000895813028F031F4579A80E090E00895C4
:102330005798FBCF81E090E00895813028F031F488
:10234000559A80E090E008955598FBCF81E090E0A9
:1023500008958091BB0308952F932FB72F938F93E8
:102360009F93EF93FF939CB18091BD038F5F8F7319
:102370002091BC0328130BC081E08093BB03FF9125
:10238000EF919F918F912F912FBF2F911895E091F1
:10239000BD03F0E0E254FC4F90838093BD03EFCF88
:1023A0008F938FB78F939F93EF93FF9390913A03FF
:1023B00080913903981308C05598FF91EF919F9130
:1023C0008F918FBF8F911895E0913903F0E0E55C14
:1023D000FC4F80818CB9809139038F5F8F77809318
:1023E0003903EBCF83EC95EA80933B0290933C0258
:1023F00081E080933D0283E280933E0280E28093FD
:102400003F0288E2809340029CE39093410299E16D
:1024100090934202809343028DE2809344028FE0C6
:102420008093450210924602109247020E944E0984
:102430000E94290A0E94F00B60E875E280E090E0BB
:102440000E94A0100E94230B8BE392E00E9479056A
:102450008BE392E00E9484048BE292E00E94B0073A
:102460008BE392E00E948D010E949B08109239023A
:1024700010923A020E9458000E94440B4AE050E039
:1024800066E570E080E00E94B2084AE050E064E552
:1024900070E081E00E94B20844E650E062E570E03E
:1024A00082E00E94B20848EC50E06BE470E083E008
:1024B0000E94B20844EF51E06BEC70E084E00E94AF
:1024C000B20848E853E167EC70E085E00E94B2088A
:1024D00044E150E069E470E086E00E94B20882E0E6
:1024E0000E94FA0F8DE40E94291081E00E942D10B5
:1024F00085E00E94151081E00E94911178940E945D
:102500000709FDCFA29FB001B39FC001A39F700D2B
:10251000811D1124911DB29F700D811D1124911DEB
:102520000895992778E0880F991F961708F0961B51
:10253000881F7A95C9F780950895AA1BBB1B51E1A6
:1025400007C0AA1FBB1FA617B70710F0A61BB70B23
:10255000881F991F5A95A9F780959095BC01CD01C8
:102560000895A1E21A2EAA1BBB1BFD010DC0AA1FD4
:10257000BB1FEE1FFF1FA217B307E407F50720F0EC
:10258000A21BB30BE40BF50B661F771F881F991F67
:102590001A9469F760957095809590959B01AC01B0
:1025A000BD01CF0108954EEF53E00E94EF12089550
:1025B000FB01DC018D91019080190110D9F3990B79
:1025C0000895FB01DC014150504030F08D910190A5
:1025D000801919F40020B9F7881B990B0895FA01A6
:1025E000A191B081009719F41097E1F0CD01DC01C1
:1025F000CD010D90002011F4C00113C0FB01219109
:10260000222319F02015D9F7F3CFFB0121912015D2
:1026100019F41E92119606C02223C1F70D900020D6
:10262000A1F7D001FA01A193B0830895F894FFCFE8
:1026300001000100B001BA011D0223022053002055
:102640004C002050004D414E55414C2000414C4122
:10265000524D2020004155544F202020004F4B0D5B
:102660000A00455252200048454C500053544154F2
:1026700055532054454D503F20534F494C3F204C1B
:10268000494748543F204346473F20534554205430
:10269000454D504F4E2F54454D504F46462F534FAA
:1026A000494C4F4E2F534F494C4F46462F4C4947AC
:1026B00048544F4E2F4C494748544F4646204D4FA3
:1026C0004445204155544F2F4D414E55414C2046D5
:1026D000414E2F50554D502F4C414D50204F4E2FB5
:1026E0004F46462052455345542044454641554C9B
:1026F00054532048454C500D0A00535441545553EF
:102700000042555359004346473F0041524700435A
:1027100046473D002C0054454D503F00534F494C17
:102720003F004C494748543F0054454D503D0053ED
:102730004F494C3D004C494748543D0053455420B7
:102740000054454D504F4E0054454D504F464600A5
:10275000534F494C4F4E00534F494C4F4646004C47
:10276000494748544F4E004C494748544F4646004D
:10277000434D440052414E4745004D4F44452000D3
:102780004155544F004D4F4445004D414E55414C2D
:102790000046414E200050554D5020004C414D50B8
:1027A000200044454641554C54530052455345542E
:1027B00000414354495645004C4F4E4700494E494D
:1027C00054002447482C543D002C533D002C4C3DD4
:1027D000002C463D002C503D002C4D3D002C413D31
:1027E000002C4D4F44453D002C55503D00414C417F
:0A27F000524D00434F4E464947008A
:00000001FF
