:100000000C942A000C9434000C9434000C943400AA
:100010000C9434000C9434000C9434000C94340090
:100020000C9434000C9434000C9434000C9436007E
:100030000C9434000C9434000C9434000C94340070
:100040000C9434000C9434000C9434000C94340060
:100050000C94340011241FBECFE5D8E0DEBFCDBF25
:100060000E945D030C9474030C940000C09A1895D0
:10007000823010F08330A9F49AEF960F923088F412
:1000800097B18295880F880F807C9F73892B87B9E1
:100090003D9886B1887F862B86B9379A80E090E0BC
:1000A000089581E090E008958830A8F46115710505
:1000B00091F097B1907E982B97B9369A3699FECFEA
:1000C000349A84B1FB018083118225B1808321831E
:1000D00080E090E0089581E090E00895883040F459
:1000E00097B1907E982B97B9369A80E090E008956A
:1000F00081E090E00895009769F0349B0BC0349A3A
:1001000024B1FC012083118245B12083418380E02A
:1001100090E0089581E090E00895843008F076C082
:10012000683008F073C0413040F521E001C0220F73
:100130006A95EAF72095823091F08330B9F08130EA
:1001400039F08AB382238ABB8BB382238BBB26C050
:1001500087B3822387BB88B3822388BB1FC084B345
:10016000822384BB85B3822385BB18C081B38223DD
:1001700081BB82B3822382BB11C0F9F421E030E05D
:10018000A90101C0440F6A95EAF7823071F083300B
:1001900081F0813031F08AB3842B8ABB80E090E01B
:1001A000089587B3842B87BBF9CF84B3842B84BB9A
:1001B000F5CF81B3842B81BBF1CF423039F521E0FB
:1001C00030E0A90101C0440F6A95EAF7942F909599
:1001D000823081F08330A1F0813031F08AB38923FD
:1001E0008ABB8BB3842BB2CF87B3892387BB88B3F9
:1001F000842BB3CF84B3892384BB85B3842BB4CF42
:1002000081B3892381BB82B3842BB5CF81E090E099
:1002100008958430E0F56830D0F54130F9F421E0FC
:1002200030E0A90101C0440F6A95EAF7823071F00D
:10023000833081F0813031F08BB3842B8BBB80E035
:1002400090E0089588B3842B88BBF9CF85B3842BC5
:1002500085BBF5CF82B3842B82BBF1CFC0F421E004
:1002600001C0220F6A95EAF72095823051F0833061
:1002700059F0813019F08BB38223E0CF88B3822309
:10028000E3CF85B38223E4CF82B38223E5CF81E03D
:1002900090E00895FA018430E0F46830D0F43097AB
:1002A000C1F0823091F0833091F0813061F089B3F8
:1002B00090E002C0959587956A95E2F781708083FA
:1002C00080E090E0089586B3F3CF83B3F1CF80B39D
:1002D000EFCF81E090E00895843008F56830F8F4BD
:1002E00021E030E0A90101C0440F6A95EAF78230AD
:1002F00071F0833081F0813031F08BB384278BBB78
:1003000080E090E0089588B3842788BBF9CF85B357
:10031000842785BBF5CF82B3842782BBF1CF81E0F0
:1003200090E00895843080F4823051F0833051F0B1
:10033000813021F06ABB80E090E0089567BBFBCF7D
:1003400064BBF9CF61BBF7CF81E090E008958430C2
:1003500080F4823051F0833051F0813021F06BBB5A
:1003600080E090E0089568BBFBCF65BBF9CF62BB2E
:10037000F7CF81E090E00895FB01843098F4309746
:1003800089F0823059F0833059F0813029F089B3F7
:10039000808380E090E0089586B3FACF83B3F8CFEE
:1003A00080B3F6CF81E090E008958FB780688FBF6B
:1003B00080E090E008958FB78F778FBF80E090E066
:1003C0000895813079F08230C1F0811122C064300B
:1003D00000F585B78C7F85BF85B7862B85BF80E00C
:1003E00090E008956430A8F485B7837F85BF85B712
:1003F000660F660F682B65BFF2CF8EEF860F8230D7
:1004000040F484B7623019F48F7B84BFE8CF8064F6
:10041000FCCF81E090E00895813051F0823059F0B6
:1004200081110CC08AB780648ABF80E090E0089593
:100430008AB78068F9CF8AB78062F6CF81E090E012
:100440000895813069F0823089F0811115C08AB732
:1004500080648ABF8BB780648BBF80E090E0089592
:100460008AB780688ABF8BB78068F6CF8AB7806208
:100470008ABF8BB78062F0CF81E090E00895813031
:1004800051F0823059F081110CC08BB78F7B8BBF3C
:1004900080E090E008958BB78F77F9CF8BB78F7D91
:1004A000F6CF81E090E008958430B0F493B7977B65
:1004B00093BF823059F0833061F0813019F080E0D1
:1004C00090E0089583B7806483BFF9CF83B78860D5
:1004D000FBCF83B78864F8CF81E090E0089588303F
:1004E00048F493B7987F93BF93B7982B93BF80E05E
:1004F00090E0089581E090E0089583B7887F83BFFE
:1005000080E090E008958CBF80E090E00895843012
:1005100058F493B79F7C93BF93B78295807F892BC4
:1005200083BF80E090E0089581E090E008958130FD
:1005300038F049F489B7816089BF80E090E0089580
:1005400089B78E7FF9CF81E090E00895813038F04F
:1005500049F489B7826089BF80E090E0089589B747
:100560008D7FF9CF81E090E00895811531F09CEF07
:10057000980F923010F08E30D9F49FB59C7F9FBDBC
:100580009EB5977E9EBD853049F060F4811519F0C7
:100590008EB588608EBD80E090E008958FB5816053
:1005A0008FBDF6CF8FB582608FBD8EB58861F2CFDB
:1005B00081E090E00895883048F49EB5987F9EBD14
:1005C0009EB5982B9EBD80E090E0089581E090E07C
:1005D00008958EB5887F8EBD80E090E008959BBD24
:1005E0008ABD80E090E0089597BD86BD80E090E0F0
:1005F00008958536C0F495B5977895BD95B59866FC
:1006000095BD2FEF829FC001112464E670E00E9427
:10061000600363BD85B5887F85BD85B5866085BD72
:1006200080E090E0089581E090E008950097C9F19E
:1006300025B5277825BD25B5286625BD2FE723BD1F
:1006400025B5287F25BD88392AE3920730F085B586
:10065000816085BD80E090E00895803D27E09207AD
:1006600018F085B58260F5CF8C3B22E0920718F038
:1006700085B58360EECF8E3521E0920718F085B501
:100680008460E7CF8A3A910518F085B58560E1CF9F
:100690008634910518F085B58660DBCF85B5876017
:1006A000D8CF81E090E0089585B5887F85BD85B578
:1006B0008F7C85BD80E090E00895B89AC09AFFCF06
:1006C000AA1BBB1B51E107C0AA1FBB1FA617B70778
:1006D00010F0A61BB70B881F991F5A95A9F7809594
:0C06E0009095BC01CD010895F894FFCF67
:00000001FF
