:100000000C942A000C943C000C943C000C943C0092
:100010000C943C000C943C000C943C000C943C0070
:100020000C943C000C943C000C943C000C943C0060
:100030000C943C000C943C000C943C000C943C0050
:100040000C943C000C943C000C943C000C943C0040
:100050000C943C0011241FBECFE5D8E0DEBFCDBF1D
:1000600020E0A0E6B0E001C01D92A639B207E1F79A
:100070000E94AF070C94FD070C940000CF93DF9310
:10008000EC01892B29F481E090E0DF91CF91089574
:100090000E94B401892BB9F70E943103009799F7A8
:1000A000C0936000D0936100F0CF0F931F93CF9364
:1000B000DF9300D00F92CDB7DEB719821A821B8270
:1000C0008091600090916100892B59F401E010E06B
:1000D000C8010F900F900F90DF91CF911F910F915A
:1000E000089540E050E0BA01CE0101960E94350328
:1000F000892B61F7BE016D5F7F4F89819A810E94D4
:100100005E038C01892B11F7E0916000F091610092
:100110008B81938161E070E0981728F094818917B2
:10012000B8F660E070E080E090E00E94FA01D0CF85
:100130000F931F93CF93DF9300D00F92CDB7DEB70D
:1001400019821A821B828091600090916100892B34
:1001500059F401E010E0C8010F900F900F90DF916B
:10016000CF911F910F91089540E050E0BE016F5F65
:100170007F4FCA010E943503892B59F7BE016D5F7D
:100180007F4F89819A810E947B038C01892B09F71B
:10019000E0916000F09161008B81958161E070E0F9
:1001A000891728F096819817B0F660E070E081E03A
:1001B00090E00E94FA01CFCF0F931F93CF93DF936C
:1001C00000D00F92CDB7DEB719821A821B828091C0
:1001D000600090916100892B59F401E010E0C801A2
:1001E0000F900F900F90DF91CF911F910F91089575
:1001F000AE014F5F5F4F60E070E0CB010E943503BE
:10020000892B59F7BE016D5F7F4F89819A810E94CA
:100210007B038C01892B09F7E0916000F09161006C
:100220008B81978161E070E0891728F0908598179D
:10023000B0F660E070E082E090E00E94FA01CFCF7B
:10024000E5E6F0E010821182128213821482158298
:100250001682379680E0E639F807A1F7109264001D
:10026000109262001092630080E090E00895E82F01
:100270009B01CA01E730D0F4672BC1F04A30510529
:10028000A8F06AE070E00E94C707009779F447E0A1
:10029000E49FF0011124EB59FF4F208331836283E7
:1002A00073831482158221E02683089581E090E013
:1002B0000895873058F497E0899FF0011124EB5995
:1002C000FF4F81E0868380E090E0089581E090E038
:1002D0000895873050F497E0899FF0011124EB597D
:1002E000FF4F168280E090E0089581E090E008954D
:1002F00080916400813049F48091620090916300A4
:100300000196809362009093630081E08093640083
:100310000895CF93DF93809164008115E9F01092E6
:100320006400C5E6D0E08E81813089F48C819D81A6
:1003300001968C839D832A813B818217930738F035
:100340001C821D82E881F981309709F00995279672
:1003500080E0C639D80739F7DF91CF9108958091B1
:100360006200909163000895CF93DF9341E060E0D5
:1003700081E00E940204892B31F0C1E0D0E0CE017F
:10038000DF91CF91089541E061E081E00E94020495
:10039000892B99F741E062E081E00E940204892BF9
:1003A00061F741E063E081E00E940204892B29F7B4
:1003B00041E067E083E00E940204EC01892BE9F64A
:1003C00040E060E081E00E947E0440E061E081E086
:1003D0000E947E0440E062E081E00E947E0440E0F2
:1003E00063E081E00E947E0440E067E083E00E94D9
:1003F0007E04C5CF9C0182309105B9F060F491E094
:10040000232B09F490E081E06230710558F4462F07
:10041000692F0C947E04039751F083E097E0243019
:10042000310591F381E090E0089592E0ECCF93E004
:10043000EACFCF93DF9300D000D000D0CDB7DEB7A6
:1004400069837A834B835C832D833E83BC0180E088
:1004500090E00E94FA01892B59F081E090E00F9022
:100460000F900F900F900F900F90DF91CF91089504
:1004700069817A8181E090E00E94FA01892B69F715
:100480006B817C8182E090E00E94FA01892B29F740
:100490006D817E8183E090E00E94FA019C0181E001
:1004A000232BE1F680E0DACF0F931F93CF93DF93F6
:1004B0000F92CDB7DEB78B011982672BF1F0823036
:1004C000910519F1A8F461E0892B09F460E081E05D
:1004D000AE014F5F5F4F0E94BF04009771F421E0AF
:1004E0004981413009F020E0F8012083118207C0E2
:1004F0008330910561F0049761F081E090E00F9006
:10050000DF91CF911F910F91089562E0E0CF63E0FA
:10051000DECF67E083E0DCCFCF93DF9300D0CDB7B1
:10052000DEB789836A830E946B05892BD9F48EE339
:100530000E948A05892B31F00F900F90DF91CF91A7
:100540000C94870589810E94AB05892BA9F78A81C4
:100550000E94AB050E9487058FE99FE00197F1F7A4
:1005600000C000000F900F90DF91CF910895682F89
:1005700080E00C948C0260EA76E881E090E00E94D2
:100580004A052FE788E391E0215080409040E1F751
:1005900000C0000088E30E94B7028CE00E94B7020E
:1005A00081E00E94B7028FE99FE00197F1F700C058
:1005B000000086E00C94B702811104C080E8860F29
:1005C0000C94B70280ECFBCFCF93DF93EC01892B27
:1005D00039F4DF91CF910895219680E40E948C0236
:1005E00068816111F9CFF5CF1F93CF93DF9300D0CE
:1005F00000D00F92CDB7DEB79C0110E0892B61F4DB
:1006000060E380E40F900F900F900F900F90DF91B8
:10061000CF911F910C948C02C9016AE070E00E9496
:10062000C707FE013196E10FF11D805D8083C9018E
:100630009B011F5F0A9780F7111109C00F900F905F
:100640000F900F900F90DF91CF911F91089511504F
:10065000FE013196E10FF11D608180E40E948C0261
:10066000EBCF66E081E00C9498030F931F93CF9338
:10067000DF938B01EA01009739F481E090E0DF918C
:10068000CF911F910F910895672BB9F32097A9F38C
:10069000BC0180E00E94E603892B79F7B80181E074
:1006A0000E94E603892B49F7BE0182E00E94E6031F
:1006B0009C0181E0232B11F780E0E0CFCF93DF9303
:1006C000EB012097A9F09C01A2E3B0E00E94B807DB
:1006D00061507E4F8F4F9F4F2FEF33E040E050E04F
:1006E0000E94DB07288380E090E0DF91CF9108959E
:1006F00081E090E0FACFCF93DF93EB012097A9F050
:100700009C01A4E6B0E00E94B80761507E4F8F4F75
:100710009F4F2FEF33E040E050E00E94DB0728833B
:1007200080E090E0DF91CF91089581E090E0FACFF2
:100730008430F0F46830E0F43E983F9880FD3E9AB3
:10074000869509F03F9A3D98389839983A983B98A1
:100750003C9830983198329860FD309A61FD319A1A
:100760006695669509F0329A379A80E090E0089590
:1007700081E090E00895379880E090E00895883017
:1007800088F4389839983A983B983C9880FD389A84
:1007900081FD399A8695869509F03A9A369A80E0D5
:1007A00090E0089581E090E0089588273699839538
:1007B0000895009741F024B145B1FC0120834183A5
:1007C00080E090E0089581E090E00895CF93DF937A
:1007D00000D0CDB7DEB769837A830E94BF0300974C
:1007E00061F40E94D5038130E1F389819A810F90F1
:1007F0000F90DF91CF910C94D9030F900F90DF9160
:10080000CF910895843008F076C0683008F073C046
:10081000413040F521E001C0220F6A95EAF72095AA
:10082000823091F08330B9F0813039F08AB382237D
:100830008ABB8BB382238BBB26C087B3822387BB43
:1008400088B3822388BB1FC084B3822384BB85B353
:10085000822385BB18C081B3822381BB82B38223EC
:1008600082BB11C0F9F421E030E0A90101C0440FBE
:100870006A95EAF7823071F0833081F0813031F08F
:100880008AB3842B8ABB80E090E0089587B3842BE1
:1008900087BBF9CF84B3842B84BBF5CF81B3842B82
:1008A00081BBF1CF423039F521E030E0A90101C030
:1008B000440F6A95EAF7942F9095823081F0833047
:1008C000A1F0813031F08AB389238ABB8BB3842BAA
:1008D000B2CF87B3892387BB88B3842BB3CF84B3CC
:1008E000892384BB85B3842BB4CF81B3892381BB97
:1008F00082B3842BB5CF81E090E008958430E0F599
:100900006830D0F54130F9F421E030E0A90101C0B0
:10091000440F6A95EAF7823071F0833081F08130BC
:1009200031F08BB3842B8BBB80E090E0089588B3CB
:10093000842B88BBF9CF85B3842B85BBF5CF82B3DD
:10094000842B82BBF1CFC0F421E001C0220F6A9555
:10095000EAF72095823051F0833059F0813019F058
:100960008BB38223E0CF88B38223E3CF85B3822386
:10097000E4CF82B38223E5CF81E090E00895FA01CD
:100980008430E0F46830D0F43097C1F0823091F0D8
:10099000833091F0813061F089B390E002C0959589
:1009A00087956A95E2F78170808380E090E00895F2
:1009B00086B3F3CF83B3F1CF80B3EFCF81E090E084
:1009C0000895843008F56830F8F421E030E0A9019A
:1009D00001C0440F6A95EAF7823071F0833081F0EC
:1009E000813031F08BB384278BBB80E090E0089599
:1009F00088B3842788BBF9CF85B3842785BBF5CF1F
:100A000082B3842782BBF1CF81E090E008958430E7
:100A100080F4823051F0833051F0813021F06ABB94
:100A200080E090E0089567BBFBCF64BBF9CF61BB6A
:100A3000F7CF81E090E00895843080F4823051F067
:100A4000833051F0813021F06BBB80E090E008955D
:100A500068BBFBCF65BBF9CF62BBF7CF81E090E00D
:100A60000895FB01843098F4309789F0823059F072
:100A7000833059F0813029F089B3808380E090E0A1
:100A8000089586B3FACF83B3F8CF80B3F6CF81E071
:100A900090E008959B01AC012115310541055105F8
:100AA000B9F081B18C7F81B960E072E18AE790E0B2
:100AB0000E94DB072051310941095109569547959C
:100AC0003795279520B984E086BF80E090E00895AF
:100AD00081E090E0089584EA86BF06B607FEFDCF68
:100AE00091B1987F21E030E0983009F420E0C9010D
:100AF000089584EA86BF06B607FEFDCF91B1987FC0
:100B000021E030E0903109F420E0C901089584E942
:100B100086BF0895880F83B984E886BF06B607FEAE
:100B2000FDCF91B1987F21E030E0983109F420E0C9
:100B3000C9010895880F816083B984E886BF06B62D
:100B400007FEFDCF91B1987F21E030E0903409F4A9
:100B500020E0C901089583B984E886BF06B607FE80
:100B6000FDCF91B1987F21E030E0983209F420E088
:100B7000C9010895FC01892B19F481E090E00895E2
:100B8000613071F484EC86BF06B607FEFDCF91B1EB
:100B9000987F903591F783B1808380E090E008954D
:100BA00060F784E886BF06B607FEFDCF91B1987F57
:100BB0009835F0CF8FB780688FBF80E090E00895C0
:100BC0008FB78F778FBF80E090E00895813079F004
:100BD0008230C1F0811122C0643000F585B78C7F6E
:100BE00085BF85B7862B85BF80E090E0089564308F
:100BF000A8F485B7837F85BF85B7660F660F682B1E
:100C000065BFF2CF8EEF860F823040F484B762303A
:100C100019F48F7B84BFE8CF8064FCCF81E090E043
:100C20000895813051F0823059F081110CC08AB79B
:100C300080648ABF80E090E008958AB78068F9CF29
:100C40008AB78062F6CF81E090E00895813069F044
:100C5000823089F0811115C08AB780648ABF8BB752
:100C600080648BBF80E090E008958AB780688ABF77
:100C70008BB78068F6CF8AB780628ABF8BB78062F5
:100C8000F0CF81E090E00895813051F0823059F04A
:100C900081110CC08BB78F7B8BBF80E090E00895F3
:100CA0008BB78F77F9CF8BB78F7DF6CF81E090E050
:100CB00008958430B0F493B7977B93BF823059F096
:100CC000833061F0813019F080E090E0089583B7BF
:100CD000806483BFF9CF83B78860FBCF83B7886414
:100CE000F8CF81E090E00895883048F493B7987F7A
:100CF00093BF93B7982B93BF80E090E0089581E075
:100D000090E0089583B7887F83BF80E090E00895E6
:100D10008CBF80E090E00895843058F493B79F7CB6
:100D200093BF93B78295807F892B83BF80E090E04B
:100D3000089581E090E00895813038F049F489B752
:100D4000816089BF80E090E0089589B78E7FF9CFF8
:100D500081E090E00895813038F049F489B78260ED
:100D600089BF80E090E0089589B78D7FF9CF81E059
:100D700090E00895811531F09CEF980F923010F0BB
:100D80008E30D9F49FB59C7F9FBD9EB5977E9EBD4A
:100D9000853049F060F4811519F08EB588608EBDFC
:100DA00080E090E008958FB581608FBDF6CF8FB55C
:100DB00082608FBD8EB58861F2CF81E090E00895AA
:100DC000883048F49EB5987F9EBD9EB5982B9EBDF9
:100DD00080E090E0089581E090E008958EB5887FEE
:100DE0008EBD80E090E008959BBD8ABD80E090E0DC
:100DF000089597BD86BD80E090E008958536C0F4E3
:100E000095B5977895BD95B5986695BD2FEF829F5E
:100E1000C001112464E670E00E94C70763BD85B578
:100E2000887F85BD85B5866085BD80E090E00895AA
:100E300081E090E008950097C9F125B5277825BD98
:100E400025B5286625BD2FE723BD25B5287F25BDFF
:100E500088392AE3920730F085B5816085BD80E04E
:100E600090E00895803D27E0920718F085B58260F4
:100E7000F5CF8C3B22E0920718F085B58360EECF6A
:100E80008E3521E0920718F085B58460E7CF8A3A65
:100E9000910518F085B58560E1CF8634910518F08D
:100EA00085B58660DBCF85B58760D8CF81E090E0DF
:100EB000089585B5887F85BD85B58F7C85BD80E02B
:100EC00090E00895009770406040D1F09B01AC0124
:100ED00084E0220F331F441F551F8A95D1F760E02D
:100EE00072E18AE790E00E94DB072150310930BDB2
:100EF00029B986E880BD88E18AB980E090E008954C
:100F000081E090E008955D9BFECF8CB980E090E099
:100F10000895009741F05F9BFECF2CB1FC01208328
:100F200080E090E0089581E090E008950F931F9392
:100F3000CF938C01C0E0892B31F481E090E00BC0AD
:100F40000E948307CF5FF801EC0FF11D80818111B2
:100F5000F7CF80E090E0CF911F910F9108950E940C
:100F6000B40161E070E084E090E00E94FA01FFCFFC
:100F7000A29FB001B39FC001A39F700D811D1124DA
:100F8000911DB29F700D811D1124911D0895AA1B02
:100F9000BB1B51E107C0AA1FBB1FA617B70710F064
:100FA000A61BB70B881F991F5A95A9F78095909596
:100FB000BC01CD010895A1E21A2EAA1BBB1BFD01A5
:100FC0000DC0AA1FBB1FEE1FFF1FA217B307E40728
:100FD000F50720F0A21BB30BE40BF50B661F771F80
:100FE000881F991F1A9469F7609570958095909560
:0E0FF0009B01AC01BD01CF010895F894FFCF25
:00000001FF
