:100000000C942A000C9447000C9447000C94470071
:100010000C9447000C9447000C9447000C94470044
:100020000C9447000C9447000C94B1000C944700CA
:100030000C9447000C9447000C9447000C94470024
:100040000C9447000C9447000C9447000C94470014
:100050000C94470011241FBECFE5D8E0DEBFCDBF12
:1000600010E0A0E6B0E0E8E3F8E102C005900D92F0
:10007000A236B107D9F720E0A2E6B0E001C01D9298
:10008000A33CB207E1F70E948A0B0C941A0C0C9463
:100090000000CF93DF930F92CDB7DEB71982BE0178
:1000A0006F5F7F4F81E090E00E944506892BE9F465
:1000B00089818115D1F081E090916300911180E0F8
:1000C000809363008091620041E0811591F065E0CA
:1000D00081E00E94620841E066E081E00E946208DF
:1000E00040E067E081E00E9462080F90DF91CF91CD
:1000F000089567E081E00E946208809163008111A9
:1001000008C040E065E081E00E94620841E066E0EE
:10011000E9CF41E065E081E00E94620840E0F7CF6E
:10012000CF93DF930F92CDB7DEB71982BE016F5F19
:100130007F4F80E090E00E944506892B61F4898121
:10014000811549F081E08093620040E067E00E9401
:1001500062080E9474050F90DF91CF9108950C946E
:10016000DC051F920F920FB60F9211242F933F932D
:100170004F935F936F937F938F939F93AF93BF93AF
:10018000EF93FF930E945D04FF91EF91BF91AF91B8
:100190009F918F917F916F915F914F913F912F919F
:1001A0000F900FBE0F901F901895CF93DF93EC0127
:1001B000892B29F481E090E0DF91CF9108950E948E
:1001C0009C04892BB9F70E941507009799F7C093F3
:1001D0006400D0936500F0CF0F931F93CF93DF930C
:1001E00000D00F92CDB7DEB719821A821B828091A0
:1001F000640090916500892B59F401E010E0C8017A
:100200000F900F900F90DF91CF911F910F91089554
:1002100040E050E0BA01CE0101960E941907892BF7
:1002200061F7BE016D5F7F4F89819A810E9442070D
:100230008C01892B11F7E0916400F09165008B81AE
:10024000938161E070E0981728F094818917B8F6DF
:1002500060E070E080E090E00E94E204D0CF0F9375
:100260001F93CF93DF9300D00F92CDB7DEB71982E3
:100270001A821B828091640090916500892B59F449
:1002800001E010E0C8010F900F900F90DF91CF9127
:100290001F910F91089540E050E0BE016F5F7F4FC6
:1002A000CA010E941907892B59F7BE016D5F7F4F64
:1002B00089819A810E945F078C01892B09F7E0915F
:1002C0006400F09165008B81958161E070E0891791
:1002D00028F096819817B0F660E070E081E090E039
:1002E0000E94E204CFCF0F931F93CF93DF9300D0F0
:1002F0000F92CDB7DEB719821A821B8280916400FB
:1003000090916500892B59F401E010E0C8010F902D
:100310000F900F90DF91CF911F910F910895AE0133
:100320004F5F5F4F60E070E0CB010E941907892B9F
:1003300059F7BE016D5F7F4F89819A810E945F07E7
:100340008C01892B09F7E0916400F09165008B81A5
:10035000978161E070E0891728F090859817B0F6D2
:1003600060E070E082E090E00E94E204CFCFCF93A3
:10037000DF9300D000D000D0CDB7DEB71B821C8247
:1003800019821A821E821D8280917B0090917C00CE
:10039000892B11F480E02AC040E050E0BE016F5F7D
:1003A0007F4FCE0103960E941907892B99F7BE0152
:1003B0006A5F7F4F8B819C810E944207892B51F796
:1003C000BE016B5F7F4F89819A810E945F07892BF5
:1003D00009F7E0917B00F0917C0091858E81981760
:1003E00070F081E092852D812917A0F60F900F9073
:1003F0000F900F900F900F90DF91CF91089581E0B3
:10040000F5CF009721F180937B0090937C001092B0
:10041000790010927A0021E0209360001092610030
:100420001092780010927700109276001092670078
:1004300010926800109266002DE0FC01A9E6B0E081
:1004400001900D922A95E1F780E090E0089581E017
:1004500090E00895EF92FF920F931F93CF93DF9355
:10046000CDB7DEB72A970FB6F894DEBF0FBECDBF6B
:1004700018861F8280917B0090917C00892B89F4E3
:1004800081E0E82EF12CC7012A960FB6F894DEBF62
:100490000FBECDBFDF91CF911F910F91FF90EF90D5
:1004A00008951B821C8219821A828E010D5F1F4FD4
:1004B000B80182E090E00E942B0609871A87009716
:1004C00029F010926700109268005EC0BE016F5F55
:1004D0007F4F0E942B06892BA1F78B819C8101976E
:1004E00081F789819A81019761F7809167009091E6
:1004F00068008C3221E0920708F486C010926700F1
:1005000010926800E0917B00F0917C0083EC95EA0A
:100510008083918381E0828383E2838380E284838A
:1005200088E285839CE3968399E1978380878DE2B7
:1005300081878FE082871386148660E070E0CB01AC
:100540000E94E20460E070E081E090E00E94E2043A
:1005500060E070E082E090E00E94E20460E070E021
:1005600083E090E00E94E20460E070E084E090E0CC
:100570000E94E204109278001092770010927600A8
:100580001092790010927A00BE01685F7F4F81E07F
:1005900090E00E944506009709F072CFBE01695FA6
:1005A0007F4F0E9445067C01892B09F069CF00919D
:1005B000790010917A000230110509F45CC070F5E1
:1005C000012BC1F560E070E0CB010E94E20460E025
:1005D00070E081E090E00E94E20460E070E082E080
:1005E00090E00E94E20460E070E083E090E00E940E
:1005F000E20460E070E084E090E00E94E204109287
:10060000780081E090E032C001968093670090937B
:1006100068008C32914009F0B7CF70CF03301105DC
:10062000C9F10430110509F4AEC01092790010929E
:100630007A0029CF0E94EC000E942F010E947301D2
:100640000E94B701811561F081E0809360001092F3
:100650006100809378001092660083E090E006C00D
:100660008885811509F40FCF82E090E080937900AE
:1006700090937A0008CF0E94B701811531F0009362
:1006800060001093610081E0E4CF8885811509F452
:10069000FACEB7CF1B821C8219821A821E821D825B
:1006A00061E070E083E090E00E94E20440E050E00E
:1006B000BE016F5F7F4F89859A850E941907892B3C
:1006C00069F5BE016A5F7F4F8B819C810E94420762
:1006D000892B21F5BE016B5F7F4F89819A810E9432
:1006E0005F07892BD9F4E0917B00F0917C00918524
:1006F0008E81981730F461E070E080E090E00E9415
:10070000E204E0917B00F0917C0082859D81981746
:1007100028F461E070E0CB010E94E2048091660061
:1007200061E070E08A3010F060E070E084E090E01A
:100730000E94E204809166008F5F843608F080E0BA
:10074000809366008F8190917700892B09F49BCE6E
:100750000E94B701811197CE1092780060E070E09E
:1007600083E090E00E94E20460E070E084E090E0CA
:100770000E94E2041092660010927700809160005F
:100780009091610073CF80917600811509F47BCE42
:10079000A0917B00B0917C008DE0E9E6F0E0019053
:1007A0000D928A95E1F7109276002BCF8091790017
:1007B00090917A00089580917800089581E0809367
:1007C000770080E090E0089581E08093760080E0FB
:1007D00090E00895FC0180917B0090917C00892B32
:1007E00089F0309779F09DE0A9E6B0E001900D9294
:1007F0009A95E1F784E090E08093790010927A0076
:1008000080E0089581E090E00895E0E8F0E0108253
:10081000118212821382148215821682379680E02A
:10082000E13BF807A1F710927F0010927D00109233
:100830007E0080E090E00895E82F9B01CA01E73038
:10084000D0F4672BC1F04A305105A8F06AE070E09F
:100850000E94E40B009779F447E0E49FF001112433
:10086000E058FF4F208331836283738314821582A3
:1008700021E02683089581E090E00895873058F4C0
:1008800097E0899FF0011124E058FF4F81E08683B3
:1008900080E090E0089581E090E00895873050F482
:1008A00097E0899FF0011124E058FF4F168280E005
:1008B00090E0089581E090E0089580917F00811597
:1008C00061F080917D0090917E008F3F980729F024
:1008D000019680937D0090937E0081E080937F005D
:1008E0000895CF93DF9380917F008115E9F01092F6
:1008F0007F00C0E8D0E08E81811589F08C819D81D8
:1009000001968C839D832A813B818217930738F05F
:100910001C821D82E881F981309709F0099527969C
:1009200080E0C13BD80739F7DF91CF9108958091DE
:100930007D0090917E000895CF93DF9341E060E0C9
:1009400081E00E94E607892B31F0C1E0D0E0CE01C2
:10095000DF91CF91089541E061E081E00E94E607D8
:10096000892B99F741E062E081E00E94E607892B3C
:1009700061F741E063E081E00E94E607892B29F7F7
:1009800041E067E083E00E94E607EC01892BE9F68D
:1009900040E060E081E00E94620840E061E081E0C8
:1009A0000E94620840E062E081E00E94620840E04C
:1009B00063E081E00E94620840E067E083E00E941B
:1009C0006208C5CF9C0182309105B9F060F491E0D6
:1009D000232B09F490E081E06230710558F4462F32
:1009E000692F0C946208039751F083E097E024305C
:1009F000310591F381E090E0089592E0ECCF93E02F
:100A0000EACFCF93DF9300D000D000D0CDB7DEB7D0
:100A100069837A834B835C832D833E83BC0180E0B2
:100A200090E00E94E204892B59F081E090E00F9061
:100A30000F900F900F900F900F90DF91CF9108952E
:100A400069817A8181E090E00E94E204892B69F754
:100A50006B817C8182E090E00E94E204892B29F77F
:100A60006D817E8183E090E00E94E2049C0181E040
:100A7000232BE1F680E0DACF0F931F93CF93DF9320
:100A80000F92CDB7DEB78B011982672BF1F0823060
:100A9000910519F1A8F461E0892B09F460E081E087
:100AA000AE014F5F5F4F0E94A308009771F421E0F1
:100AB0004981413009F020E0F8012083118207C00C
:100AC0008330910561F0049761F081E090E00F9030
:100AD000DF91CF911F910F91089562E0E0CF63E025
:100AE000DECF67E083E0DCCF41E067E083E00C9499
:100AF000620840E067E083E00C946208CF93DF93E4
:100B00000F92CDB7DEB71982AE014F5F5F4F67E03E
:100B100083E00E94A308892B61F48981811106C0BA
:100B20000E9474050F90DF91CF9108950E9479057E
:100B3000F9CF81E090E0F6CF1092B1001092B200B0
:100B40001092B3001092B4001092B5001092B6004B
:100B50001092B7001092B8001092B9001092BA002B
:100B60001092BB001092BC001092BD001092BE000B
:100B70001092BF001092C0001092C1001092C200EB
:100B800042E062E083E00E94E607892B19F081E0F1
:100B900090E0089542E063E083E00E94E607892B3D
:100BA000B1F742E064E083E00E94E6079C0181E047
:100BB000232B71F780E0ECCFFF920F931F93CF931D
:100BC000DF930F92CDB7DEB701EB10E0F12C198265
:100BD00081E063E0F81629F0E2E062E0FE1201C075
:100BE00064E0AE014F5F5F4F83E00E94A308892B52
:100BF00071F4398181E090E0311180E0F8014281A7
:100C000053814817590791F0828313821482F39419
:100C10000A5F1F4FF3E0FF12DACF80E090E00F9001
:100C2000DF91CF911F910F91FF9008952481223081
:100C300068F0F801408151814817590741F38083DA
:100C400011823111E4CF81E08583E1CF2F5F2483CE
:100C50002230E9F6EECF61157105A1F083309105E0
:100C600088F446E0489F9001499F300D11242F548D
:100C70003F4FF90180819181FB018083918380E066
:100C800090E0089581E090E008956115710591F07C
:100C90008330910578F426E0289FF001299FF00D1C
:100CA0001124EF54FF4F8581DB018C93158280E086
:100CB00090E0089581E090E008958330910568F414
:100CC00046E0489F9001499F300D11242F543F4F1B
:100CD000F901158280E090E0089581E090E00895A8
:100CE000CF93DF9300D0CDB7DEB789836A830E94AC
:100CF0004F09892BD9F48EE30E946E09892B31F0BC
:100D00000F900F90DF91CF910C946B0989810E9415
:100D10008F09892BA9F78A810E948F090E946B098C
:100D20008FE99FE00197F1F700C000000F900F904E
:100D3000DF91CF910895682F80E00C94700660EAEF
:100D400076E881E090E00E942E092FE788E391E0A9
:100D5000215080409040E1F700C0000088E30E94ED
:100D60009B068CE00E949B0681E00E949B068FE917
:100D70009FE00197F1F700C0000086E00C949B060D
:100D8000811104C080E8860F0C949B0680ECFBCF99
:100D9000CF93DF93EC01892B39F4DF91CF91089544
:100DA000219680E40E94700668816111F9CFF5CF29
:100DB0001F93CF93DF9300D000D00F92CDB7DEB753
:100DC0009C0110E0892B61F460E380E40F900F90A8
:100DD0000F900F900F90DF91CF911F910C947006A0
:100DE000C9016AE070E00E94E40BFE013196E10F58
:100DF000F11D805D8083C9019B011F5F0A9780F709
:100E0000111109C00F900F900F900F900F90DF916C
:100E1000CF911F9108951150FE013196E10FF11D00
:100E2000608180E40E947006EBCF66E081E00C9464
:100E30007C070F931F93CF93DF938B01EA010097F9
:100E400039F481E090E0DF91CF911F910F910895E7
:100E5000672BB9F32097A9F3BC0180E00E94CA0771
:100E6000892B79F7B80181E00E94CA07892B49F7DD
:100E7000BE0182E00E94CA079C0181E0232B11F78A
:100E800080E0E0CFCF93DF93EB012097A9F09C01A6
:100E9000A2E3B0E00E94D50B61507E4F8F4F9F4F71
:100EA0002FEF33E040E050E00E94F80B288380E011
:100EB00090E0DF91CF91089581E090E0FACFCF9359
:100EC000DF93EB012097A9F09C01A4E6B0E00E941B
:100ED000D50B61507E4F8F4F9F4F2FEF33E040E097
:100EE00050E00E94F80B288380E090E0DF91CF91E2
:100EF000089581E090E0FACF8430F0F46830E0F4B7
:100F00003E983F9880FD3E9A869509F03F9A3D981D
:100F1000389839983A983B983C983098319832985C
:100F200060FD309A61FD319A6695669509F0329AB6
:100F3000379A80E090E0089581E090E00895379836
:100F400080E090E00895883088F4389839983A988D
:100F50003B983C9880FD389A81FD399A8695869514
:100F600009F03A9A369A80E090E0089581E090E0A6
:100F700008958827369983950895009741F024B104
:100F800045B1FC012083418380E090E0089581E039
:100F900090E00895CF93DF9300D0CDB7DEB769839B
:100FA0007A830E94A307009761F40E94B9078130F9
:100FB000E1F389819A810F900F90DF91CF910C948A
:100FC000BD070F900F90DF91CF910895843008F006
:100FD00076C0683008F073C0413040F521E001C0B0
:100FE000220F6A95EAF72095823091F08330B9F0AC
:100FF000813039F08AB382238ABB8BB382238BBBC7
:1010000026C087B3822387BB88B3822388BB1FC0D7
:1010100084B3822384BB85B3822385BB18C081B38C
:10102000822381BB82B3822382BB11C0F9F421E009
:1010300030E0A90101C0440F6A95EAF7823071F0EF
:10104000833081F0813031F08AB3842B8ABB80E019
:1010500090E0089587B3842B87BBF9CF84B3842BAA
:1010600084BBF5CF81B3842B81BBF1CF423039F5FE
:1010700021E030E0A90101C0440F6A95EAF7942FFE
:101080009095823081F08330A1F0813031F08AB3C5
:1010900089238ABB8BB3842BB2CF87B3892387BBC9
:1010A00088B3842BB3CF84B3892384BB85B3842BCB
:1010B000B4CF81B3892381BB82B3842BB5CF81E0C8
:1010C00090E008958430E0F56830D0F54130F9F4CF
:1010D00021E030E0A90101C0440F6A95EAF78230AF
:1010E00071F0833081F0813031F08BB3842B8BBB76
:1010F00080E090E0089588B3842B88BBF9CF85B356
:10110000842B85BBF5CF82B3842B82BBF1CFC0F497
:1011100021E001C0220F6A95EAF72095823051F054
:10112000833059F0813019F08BB38223E0CF88B33C
:101130008223E3CF85B38223E4CF82B38223E5CF3A
:1011400081E090E00895FA018430E0F46830D0F452
:101150003097C1F0823091F0833091F0813061F0AE
:1011600089B390E002C0959587956A95E2F7817002
:10117000808380E090E0089586B3F3CF83B3F1CF0E
:1011800080B3EFCF81E090E00895843008F56830B7
:10119000F8F421E030E0A90101C0440F6A95EAF7B4
:1011A000823071F0833081F0813031F08BB384274D
:1011B0008BBB80E090E0089588B3842788BBF9CF8B
:1011C00085B3842785BBF5CF82B3842782BBF1CF5B
:1011D00081E090E00895843080F4823051F08330D3
:1011E00051F0813021F06ABB80E090E0089567BB48
:1011F000FBCF64BBF9CF61BBF7CF81E090E00895EE
:10120000843080F4823051F0833051F0813021F00D
:101210006BBB80E090E0089568BBFBCF65BBF9CF66
:1012200062BBF7CF81E090E00895FB01843098F431
:10123000309789F0823059F0833059F0813029F0AD
:1012400089B3808380E090E0089586B3FACF83B3BA
:10125000F8CF80B3F6CF81E090E008959B01AC0118
:101260002115310541055105B9F081B18C7F81B956
:1012700060E072E18AE790E00E94F80B20513109AA
:1012800041095109569547953795279520B984E02E
:1012900086BF80E090E0089581E090E0089584EAC0
:1012A00086BF06B607FEFDCF91B1987F21E030E002
:1012B000983009F420E0C901089584EA86BF06B693
:1012C00007FEFDCF91B1987F21E030E0903109F425
:1012D00020E0C901089584E986BF0895880F83B985
:1012E00084E886BF06B607FEFDCF91B1987F21E066
:1012F00030E0983109F420E0C9010895880F816039
:1013000083B984E886BF06B607FEFDCF91B1987F0A
:1013100021E030E0903409F420E0C901089583B958
:1013200084E886BF06B607FEFDCF91B1987F21E025
:1013300030E0983209F420E0C9010895FC01892BBE
:1013400019F481E090E00895613071F484EC86BF77
:1013500006B607FEFDCF91B1987F903591F783B126
:10136000808380E090E0089560F784E886BF06B649
:1013700007FEFDCF91B1987F9835F0CF8FB7806889
:101380008FBF80E090E008958FB78F778FBF80E0A8
:1013900090E00895813079F08230C1F0811122C04F
:1013A000643000F585B78C7F85BF85B7862B85BFF8
:1013B00080E090E008956430A8F485B7837F85BF0E
:1013C00085B7660F660F682B65BFF2CF8EEF860F6D
:1013D000823040F484B7623019F48F7B84BFE8CF49
:1013E0008064FCCF81E090E00895813051F082303C
:1013F00059F081110CC08AB780648ABF80E090E008
:1014000008958AB78068F9CF8AB78062F6CF81E005
:1014100090E00895813069F0823089F0811115C023
:101420008AB780648ABF8BB780648BBF80E090E00E
:1014300008958AB780688ABF8BB78068F6CF8AB76D
:1014400080628ABF8BB78062F0CF81E090E0089520
:10145000813051F0823059F081110CC08BB78F7BF5
:101460008BBF80E090E008958BB78F77F9CF8BB773
:101470008F7DF6CF81E090E008958430B0F493B78B
:10148000977B93BF823059F0833061F0813019F03F
:1014900080E090E0089583B7806483BFF9CF83B77D
:1014A0008860FBCF83B78864F8CF81E090E008952F
:1014B000883048F493B7987F93BF93B7982B93BF26
:1014C00080E090E0089581E090E0089583B7887F00
:1014D00083BF80E090E008958CBF80E090E00895A5
:1014E000843058F493B79F7C93BF93B78295807FE5
:1014F000892B83BF80E090E0089581E090E008951B
:10150000813038F049F489B7816089BF80E090E08C
:10151000089589B78E7FF9CF81E090E008958130FA
:1015200038F049F489B7826089BF80E090E008957F
:1015300089B78D7FF9CF81E090E00895811531F072
:101540009CEF980F923010F08E30D9F49FB59C7FAD
:101550009FBD9EB5977E9EBD853049F060F4811594
:1015600019F08EB588608EBD80E090E008958FB54B
:1015700081608FBDF6CF8FB582608FBD8EB58861DB
:10158000F2CF81E090E00895883048F49EB5987FCE
:101590009EBD9EB5982B9EBD80E090E0089581E0B1
:1015A00090E008958EB5887F8EBD80E090E008952C
:1015B0009BBD8ABD80E090E0089597BD86BD80E028
:1015C00090E008958536C0F495B5977895BD95B5AA
:1015D000986695BD2FEF829FC001112464E670E0EC
:1015E0000E94E40B63BD85B5887F85BD85B58660A7
:1015F00085BD80E090E0089581E090E00895009737
:10160000C9F125B5277825BD25B5286625BD2FE765
:1016100023BD25B5287F25BD88392AE3920730F000
:1016200085B5816085BD80E090E00895803D27E02C
:10163000920718F085B58260F5CF8C3B22E09207C7
:1016400018F085B58360EECF8E3521E0920718F053
:1016500085B58460E7CF8A3A910518F085B5856035
:10166000E1CF8634910518F085B58660DBCF85B56E
:101670008760D8CF81E090E0089500977040604087
:10168000D1F09B01AC0184E0220F331F441F551F92
:101690008A95D1F760E072E18AE790E00E94F80B4A
:1016A0002150310930BD29B986E880BD88E18AB969
:1016B00080E090E0089581E090E008955D9BFECF8A
:1016C0008CB980E090E00895009741F05F9BFECFD9
:1016D0002CB1FC01208380E090E0089581E090E04F
:1016E00008950F931F93CF938C01C0E0892B31F4A1
:1016F00081E090E00BC00E945E0BCF5FF801EC0F21
:10170000F11D80818111F7CF80E090E0CF911F9192
:101710000F9108950E949C040E949C0541E065E0A1
:1017200081E00E94E60741E066E081E00E94E60772
:1017300041E067E081E00E94E60741E065E081E08A
:101740000E94620841E066E081E00E94620841E098
:1017500067E081E00E9462080E9479050E9405040A
:101760004AE050E06FEA70E080E00E941C044AE02A
:1017700050E069E470E081E00E941C0444E150E024
:1017800060E970E086E00E941C0482E00E943D0A4D
:101790008DE40E946C0A81E00E948F0A85E00E941D
:1017A000580A78940E947104FDCFA29FB001B39FA4
:1017B000C001A39F700D811D1124911DB29F700D5A
:1017C000811D1124911D0895AA1BBB1B51E107C067
:1017D000AA1FBB1FA617B70710F0A61BB70B881FC1
:1017E000991F5A95A9F780959095BC01CD01089550
:1017F000A1E21A2EAA1BBB1BFD010DC0AA1FBB1F15
:10180000EE1FFF1FA217B307E407F50720F0A21B86
:10181000B30BE40BF50B661F771F881F991F1A94F3
:1018200069F760957095809590959B01AC01BD011D
:08183000CF010895F894FFCFE9
:021838000100AD
:00000001FF
