:100000000C942A000C9434000C9434000C943400AA
:100010000C9434000C9434000C9434000C94340090
:100020000C9434000C9434000C9434000C94340080
:100030000C9434000C9434000C9434000C94340070
:100040000C9434000C9434000C9434000C94340060
:100050000C94340011241FBECFE5D8E0DEBFCDBF25
:100060000E9496040C9445050C940000CF93DF93F6
:1000700041E060E081E00E94C601892B31F0C1E0DF
:10008000D0E0CE01DF91CF91089541E061E081E0C1
:100090000E94C601892B99F741E062E081E00E944D
:1000A000C601892B61F741E063E081E00E94C6014F
:1000B000EC01892B21F740E060E081E00E944202E0
:1000C00040E061E081E00E94420240E062E081E0C5
:1000D0000E94420240E063E081E00E944202D1CFF0
:1000E0009C010297A1F060F491E0232B09F490E0C9
:1000F0006230710548F4462F692F81E00C9442026A
:1001000093E023303105A1F381E090E0089592E07F
:10011000EFCFCF93DF9300D000D000D0CDB7DEB7C4
:1001200069837A834B835C832D833E83BC0180E0AB
:1001300090E00E947000892B59F081E090E00F90D0
:100140000F900F900F900F900F90DF91CF91089527
:1001500069817A8181E090E00E947000892B69F7C3
:100160006B817C8182E090E00E947000892B29F7EE
:100170006D817E8183E090E00E9470009C0181E0AF
:10018000232BE1F680E0DACF0F931F93CF93DF9319
:100190000F92CDB7DEB78B011982672BE1F0823069
:1001A000910509F1A8F461E0892B09F460E0AE0142
:1001B0004F5F5F4F81E00E948302009761F421E06E
:1001C0004981413009F020E0F8012083118205C007
:1001D00063E0039761F381E090E00F90DF91CF91AE
:1001E0001F910F91089562E0E2CF66E081E00C94E8
:1001F0005C010F931F93CF93DF938B01EA0100976C
:1002000039F481E090E0DF91CF911F910F91089533
:10021000672BB9F32097A9F3BC0180E00E94AA01E3
:10022000892B79F7B80181E00E94AA01892B49F74F
:10023000BE0182E00E94AA019C0181E0232B11F7FC
:1002400080E0E0CFCF93DF93EB012097A9F09C01F2
:10025000A2E3B0E00E94000561507E4F8F4F9F4F98
:100260002FEF33E040E050E00E942305288380E038
:1002700090E0DF91CF91089581E090E0FACFCF93A5
:10028000DF93EB012097A9F09C01A4E6B0E00E9467
:10029000000561507E4F8F4F9F4F2FEF33E040E0BE
:1002A00050E00E942305288380E090E0DF91CF9109
:1002B000089581E090E0FACF8430F0F46830E0F403
:1002C0003E983F9880FD3E9A869509F03F9A3D986A
:1002D000389839983A983B983C98309831983298A9
:1002E00060FD309A61FD319A6695669509F0329A03
:1002F000379A80E090E0089581E090E00895379883
:1003000080E090E00895883088F4389839983A98D9
:100310003B983C9880FD389A81FD399A8695869560
:1003200009F03A9A369A80E090E0089581E090E0F2
:1003300008958827369983950895009741F024B150
:1003400045B1FC012083418380E090E0089581E085
:1003500090E00895CF93DF9300D0CDB7DEB76983E7
:100360007A830E948301009761F40E949901813091
:10037000E1F389819A810F900F90DF91CF910C94D6
:100380009D010F900F90DF91CF910895843008F078
:1003900076C0683008F073C0413040F521E001C0FC
:1003A000220F6A95EAF72095823091F08330B9F0F8
:1003B000813039F08AB382238ABB8BB382238BBB13
:1003C00026C087B3822387BB88B3822388BB1FC024
:1003D00084B3822384BB85B3822385BB18C081B3D9
:1003E000822381BB82B3822382BB11C0F9F421E056
:1003F00030E0A90101C0440F6A95EAF7823071F03C
:10040000833081F0813031F08AB3842B8ABB80E065
:1004100090E0089587B3842B87BBF9CF84B3842BF6
:1004200084BBF5CF81B3842B81BBF1CF423039F54A
:1004300021E030E0A90101C0440F6A95EAF7942F4A
:100440009095823081F08330A1F0813031F08AB311
:1004500089238ABB8BB3842BB2CF87B3892387BB15
:1004600088B3842BB3CF84B3892384BB85B3842B17
:10047000B4CF81B3892381BB82B3842BB5CF81E014
:1004800090E008958430E0F56830D0F54130F9F41B
:1004900021E030E0A90101C0440F6A95EAF78230FB
:1004A00071F0833081F0813031F08BB3842B8BBBC2
:1004B00080E090E0089588B3842B88BBF9CF85B3A2
:1004C000842B85BBF5CF82B3842B82BBF1CFC0F4E4
:1004D00021E001C0220F6A95EAF72095823051F0A1
:1004E000833059F0813019F08BB38223E0CF88B389
:1004F0008223E3CF85B38223E4CF82B38223E5CF87
:1005000081E090E00895FA018430E0F46830D0F49E
:100510003097C1F0823091F0833091F0813061F0FA
:1005200089B390E002C0959587956A95E2F781704E
:10053000808380E090E0089586B3F3CF83B3F1CF5A
:1005400080B3EFCF81E090E00895843008F5683003
:10055000F8F421E030E0A90101C0440F6A95EAF700
:10056000823071F0833081F0813031F08BB3842799
:100570008BBB80E090E0089588B3842788BBF9CFD7
:1005800085B3842785BBF5CF82B3842782BBF1CFA7
:1005900081E090E00895843080F4823051F083301F
:1005A00051F0813021F06ABB80E090E0089567BB94
:1005B000FBCF64BBF9CF61BBF7CF81E090E008953A
:1005C000843080F4823051F0833051F0813021F05A
:1005D0006BBB80E090E0089568BBFBCF65BBF9CFB3
:1005E00062BBF7CF81E090E00895FB01843098F47E
:1005F000309789F0823059F0833059F0813029F0FA
:1006000089B3808380E090E0089586B3FACF83B306
:10061000F8CF80B3F6CF81E090E008958FB780687F
:100620008FBF80E090E008958FB78F778FBF80E015
:1006300090E00895813079F08230C1F0811122C0BC
:10064000643000F585B78C7F85BF85B7862B85BF65
:1006500080E090E008956430A8F485B7837F85BF7B
:1006600085B7660F660F682B65BFF2CF8EEF860FDA
:10067000823040F484B7623019F48F7B84BFE8CFB6
:100680008064FCCF81E090E00895813051F08230A9
:1006900059F081110CC08AB780648ABF80E090E075
:1006A00008958AB78068F9CF8AB78062F6CF81E073
:1006B00090E00895813069F0823089F0811115C091
:1006C0008AB780648ABF8BB780648BBF80E090E07C
:1006D00008958AB780688ABF8BB78068F6CF8AB7DB
:1006E00080628ABF8BB78062F0CF81E090E008958E
:1006F000813051F0823059F081110CC08BB78F7B63
:100700008BBF80E090E008958BB78F77F9CF8BB7E0
:100710008F7DF6CF81E090E008958430B0F493B7F8
:10072000977B93BF823059F0833061F0813019F0AC
:1007300080E090E0089583B7806483BFF9CF83B7EA
:100740008860FBCF83B78864F8CF81E090E008959C
:10075000883048F493B7987F93BF93B7982B93BF93
:1007600080E090E0089581E090E0089583B7887F6D
:1007700083BF80E090E008958CBF80E090E0089512
:10078000843058F493B79F7C93BF93B78295807F52
:10079000892B83BF80E090E0089581E090E0089588
:1007A000813038F049F489B7816089BF80E090E0FA
:1007B000089589B78E7FF9CF81E090E00895813068
:1007C00038F049F489B7826089BF80E090E00895ED
:1007D00089B78D7FF9CF81E090E00895811531F0E0
:1007E0009CEF980F923010F08E30D9F49FB59C7F1B
:1007F0009FBD9EB5977E9EBD853049F060F4811502
:1008000019F08EB588608EBD80E090E008958FB5B8
:1008100081608FBDF6CF8FB582608FBD8EB5886148
:10082000F2CF81E090E00895883048F49EB5987F3B
:100830009EBD9EB5982B9EBD80E090E0089581E01E
:1008400090E008958EB5887F8EBD80E090E0089599
:100850009BBD8ABD80E090E0089597BD86BD80E095
:1008600090E008958536C0F495B5977895BD95B517
:10087000986695BD2FEF829FC001112464E670E059
:100880000E940F0563BD85B5887F85BD85B58660EF
:1008900085BD80E090E0089581E090E008950097A4
:1008A000C9F125B5277825BD25B5286625BD2FE7D3
:1008B00023BD25B5287F25BD88392AE3920730F06E
:1008C00085B5816085BD80E090E00895803D27E09A
:1008D000920718F085B58260F5CF8C3B22E0920735
:1008E00018F085B58360EECF8E3521E0920718F0C1
:1008F00085B58460E7CF8A3A910518F085B58560A3
:10090000E1CF8634910518F085B58660DBCF85B5DB
:100910008760D8CF81E090E0089585B5887F85BD58
:1009200085B58F7C85BD80E090E00895CDB7DEB7BA
:1009300029970FB6F894DEBF0FBECDBF1D821E8271
:100940001B821C8219821A82198618861F820E94B5
:10095000F5000E943600AE014F5F5F4FBE016D5F34
:100960007F4FCE0105960E94F900BE01675F7F4F61
:100970008D819E810E942201BE01685F7F4F8B8125
:100980009C810E943F01BE01695F7F4F89819A81EE
:100990000E943F01898561E070E08A3110F460E0D7
:1009A00070E080E090E00E947000888561E070E077
:1009B000823310F060E070E081E090E00E9470000F
:1009C0008F8161E070E0823310F060E070E082E0DF
:1009D00090E00E947000898561E070E08E3210F432
:1009E00060E070E083E090E00E9470002FEF81EE05
:1009F00094E0215080409040E1F700C00000ABCF70
:100A0000A29FB001B39FC001A39F700D811D11244F
:100A1000911DB29F700D811D1124911D0895AA1B77
:100A2000BB1B51E107C0AA1FBB1FA617B70710F0D9
:100A3000A61BB70B881F991F5A95A9F7809590950B
:100A4000BC01CD010895A1E21A2EAA1BBB1BFD011A
:100A50000DC0AA1FBB1FEE1FFF1FA217B307E4079D
:100A6000F50720F0A21BB30BE40BF50B661F771FF5
:100A7000881F991F1A9469F76095709580959095D5
:0E0A80009B01AC01BD01CF010895F894FFCF9A
:00000001FF
